:100000000C9426020C945E020C945E020C945E0228
:100010000C945E020C945E020C945E020C945E02E0
:100020000C945E020C945E020C9448210C941C22E9
:100030000C94681B0C945E020C945E020C945E029D
:100040000C945E020C945E020C945E020C945E02B0
:100050000C945E020C94EF1B0C945E020C945E02F6
:100060000C945E020C945E020C945E020C945E0290
:100070000C945E020C945E020C945E020C945E0280
:100080000C945E020C945E020C945E020C945E0270
:100090000C945E020C945E020C945E020C945E0260
:1000A0000C945E020C945E020C945E022900140013
:1000B0001A000800150017001C0018000C001200A0
:1000C00013002A00E00004001600070009000A00DF
:1000D0000B000D000E000F00280000000000E100E2
:1000E0001D641B68060019420543114110002C00D5
:1000F0002C00000001001E001F0020002100220033
:10010000230024002500260027004C0001002F00BA
:100110003000380031002D002E003300340035004F
:1001200001000000000001000100010001000100C9
:1001300001000100360037003700000001001E02F8
:100140001F0220022102220223022402250226028B
:100150002702010001002F023002380231020100A3
:100160002D022E02330234020100000000000100C3
:100170003602370201000100010001000100010008
:100180000100000001003A003B003C003D003E0041
:100190003F004000410042004300005C2B00A900EA
:1001A000AA00A8004A004D005000510052004F0024
:1001B0000100000000000100E200E3004600010031
:1001C000010001000100010001000000000000002A
:1001D000000000002A2B28000000000000000000A2
:1001E0000000000000000029000000002C1E342048
:1001F000212224342627252E362D3738271E1F206E
:100200002122232425263333362E37381F040506B2
:100210000708090A0B0C0D0E0F10111213141516F6
:100220001718191A1B1C1D2F3130232D35040506F4
:100230000708090A0B0C0D0E0F10111213141516D6
:100240001718191A1B1C1D2F3130354C00000000E7
:10025000000000000000000000000000000000009E
:10026000000000000000000000000000000000008E
:100270007E0F00D4FFFFFFC700000078300354005A
:1002800045005300540041004D004100540054000B
:10029000410020004B004500590042004F00520031
:1002A0004400200023003000300030000000120322
:1002B00068006900640065002D006B00650079002E
:1002C00000000403090409025B00030100A0FA090D
:1002D0000400000103010100092111010001224075
:1002E0000007058103080001090401000203000062
:1002F00000092111010001222200070582032000CC
:1003000001070503032000010904020001030000A6
:100310000009211101000122B60007058403200015
:100320000112010002000000088C1D000001000104
:100330000200010660FF0961A1010962150026FFA4
:10034000009520750881020963150026FF0095209D
:1003500075089102C005010902A10185020901A1E8
:100360000005091901290815002501950875018165
:10037000020501093009311581257F950275088133
:100380000609381581257F950175088106050C0A37
:1003900038021581257F950175088106C0C00501C9
:1003A0000980A101850319012AB700150126B700AC
:1003B000950175108100C0050C0901A10185041982
:1003C000012AA002150126A002950175108100C026
:1003D00005010906A1018506050719E029E71500B1
:1003E00025019508750181020507190029EF1500FF
:1003F000250195F07501810205081901290595056A
:1004000075019102950175039101C005010906A1CD
:1004100001050719E029E7150025019508750181F7
:10042000029501750881010507190029FF150026AD
:10043000FF00950675088100050819012905950535
:1004400075019102950175039101C00011241FBE31
:10045000CFEFDAE0DEBFCDBF04B603FE18C0809157
:100460009E0290919F02A091A002B091A1028730BC
:10047000904BA740B04B59F410929E0210929F02ED
:100480001092A0021092A102E0E0F8E3099511E0B9
:10049000A0E0B1E0E4E6F9E402C005900D92A839CD
:1004A000B107D9F722E0A8E9B1E001C01D92AE3949
:1004B000B207E1F70E9467110C9487240C940000A6
:1004C00084E0089581E0089581E008950E94640227
:1004D000089508950E9469020895A5E0B0E0E3E759
:1004E000F2E00C94F32349835A8330919F01898170
:1004F0009A81311119C0662399F0222389F00E9454
:100500005C08182F682F89819A810E9438086981B8
:100510007A81812F0E9453182596E3E00C940F24D2
:100520000E944A08182FF3CF0E945C0869817A81E3
:10053000F1CFFC01262F408151816281738184813A
:100540000E946D02089581E00895CF93DF93EC013E
:1005500060E00E949902BE010E946A02DF91CF9181
:100560000895E1E0F0E0DF0102C0AA0FBB1F6A9529
:10057000E2F7BD01DF0102C0AA0FBB1F4A95E2F7F7
:100580006A2B01C0EE0F2A95EAF7962F982396134F
:1005900002C08E2B0895E0958E230895242F462FB8
:1005A000682F8091AF010E94B1020E9498070895C0
:1005B0000E940B1008950E940F10089508950E9444
:1005C0002A070E94DE022FEF84E39CE02150804046
:1005D0009040E1F700C0000008950E94DF020E94F1
:1005E000131C08950E94DF020E94371C08950F9388
:1005F0001F93CF93DF938C0161E00E949902EC017D
:10060000B8010E945D14811106C080E0DF91CF9196
:100610001F910F910895B801CE010E9466028823B0
:10062000A1F3B801CE010E949919882371F3B80192
:10063000CE010E944C15882341F3B801CE010E94DF
:100640000B19882311F3F8018281882361F0CA35E0
:10065000FDE5DF0701F158F4C115ECE5DE0791F087
:10066000CE3DDC4591F0C8010E946202CFCFCC356F
:100670008DE5D80769F090F0C73ADD45A1F70E94F3
:10068000F202C3CF0E94ED02C0CF0E94150DF7CF3A
:100690000E944F0CE8CF0E94590CE5CF0E945D0CE0
:1006A000E2CF0E94441B0E946E0308950E947203D1
:1006B0000E94491B089508950E945B03089581E0FC
:1006C00008950E945F0308950895CF93C82F0E9454
:1006D0005C038C2F0E946103CF91089580E00E94FB
:1006E000650308950E94F5190E9465030895CF934C
:1006F0000E94F519C82F80919A018C1779F0C09348
:100700009A010E94D41B60939B0170939C0180937B
:100710009D0190939E018C2F0E946503CF910895B7
:10072000ABE0B0E0E6E9F3E00C94F4234F835887A4
:1007300069877A878B8761110E949A0B1E821D82BE
:1007400085E0FE013796DE01119601900D928A95A3
:10075000E1F78C819D81892B61F449815A816B81FC
:100760007C818D819E810E94C30A2B96E2E00C94CD
:10077000102489819A8189238F3F79F3CE010196D4
:100780000E94A3028111E9CFF0CFFC018081918109
:100790000E9489080895CF93C82F8823C9F0823812
:1007A000C9F40E94F51981FD13C089E30E94520B20
:1007B0000E94BB0B2FEF87EE93E0215080409040CA
:1007C000E1F700C0000089E30E945A0B0E94BB0BB6
:1007D000CF9108958338A1F40E94F51980FDF8CFD8
:1007E00083E50E94520B0E94BB0B2FEF81EE94E039
:1007F000215080409040E1F700C0000083E5E4CF45
:100800008438A1F40E94F51982FDE2CF87E40E94AA
:10081000520B0E94BB0B2FEF81EE94E021508040E1
:100820009040E1F700C0000087E4CECF8CEF8C0F42
:10083000813A90F46C2F80910001909101010E9407
:100840006A1A882329F08C2F0E945A0B0E94BB0B36
:100850008C2F0E94520BBACF80E28C0F883048F464
:10086000C77081E001C0880FCA95EAF70E947D0B2E
:10087000ADCFEBE5EC0FE33040F4F0E0EB5BFE4F87
:10088000808190E00E942A1AA3CFE8E5EC0FE731BF
:1008900050F4F0E0EE0FFF1FE95EFE4F8081918182
:1008A0000E94401A95CFC03F08F492CF8C2F0E942F
:1008B000EB110E94BE128CCF882309F455C08238F8
:1008C00079F40E94F51981FF4FC089E30E94520B11
:1008D0000E94BB0B89E30E945A0B0E94BB0B089538
:1008E000833859F40E94F51980FF3EC083E50E94C9
:1008F000520B0E94BB0B83E5EECF843859F40E9463
:10090000F51982FF31C087E40E94520B0E94BB0B95
:1009100087E4E1CF9CEF980F913AE8F290E2980FCC
:10092000983050F4877091E001C0990F8A95EAF7EA
:10093000892F0E94830BD1CF9BE5980F933028F429
:1009400090E080E00E942A1A089598E5980F973168
:1009500028F490E080E00E94401A0895803F20F043
:100960000E9445120E94BE1208951F93CF93DF93F9
:10097000182FEB010E94CB03209739F4812F0E949E
:100980005C04DF91CF911F9108958FE99FE001975B
:10099000F1F700C000002197EFCF70E060E08933ED
:1009A00011F460E570E00E94B5040895882321F0F9
:1009B0000E947D0B0E94BB0B0895882321F00E94AA
:1009C000830B0E94BB0B0895B0E0A0E0EAEEF4E0D8
:1009D0000C94ED236C01D62FC72FFC011281F580FA
:1009E000F2949FE0F9220E94730BE82E8823B9F05D
:1009F000E12E1123A1F08C2F807F803421F080E242
:100A00008D0F8830D0F08091800282FF16C082E086
:100A10000E941E0C0E94730B91E0E82EE926BC2E6A
:100A2000B2948FE0B822FBE0FB1508F468C0EB2D10
:100A3000F0E0E757FB4D0C94D723E12CF0CF0C2FBF
:100A40000F70C07F11F00295007F112399F00023F1
:100A500059F080E28D0F883010F0D11107C0802F3F
:100A60000E947D0B0E94BB0B8D2F41C0802F0E94E6
:100A70008D0BF8CF8D2F0E945C04002309F43FC03A
:100A800080E28D0F883010F0D11104C0802F0E94B9
:100A9000830B03C0802F0E94930B0E94BB0B2FC0BF
:100AA0000C2F0F70C07FC03211F00295007FDD2344
:100AB00081F0D13009F463C0112309F46DC0FF2027
:100AC00009F463C0F601858180FFCECF8F708583E6
:100AD0005CC08091800282FD33C0112359F0002355
:100AE00029F0802F0E947D0B0E94BB0B80E00E94AA
:100AF000CB0305C080E00E945C040111C7CFEB2D41
:100B0000E850FF0B349720F40E94F5190E9465030A
:100B1000EE2089F00E946F0B80FD0DC0F60112825D
:100B20000E94690B0E94AC07C6010E94EA060E945F
:100B3000690B0E94B807CDB7DEB7E9E00C94092431
:100B4000112389F0F11006C00E949D0B802B0E949A
:100B5000D604D5CF21E0F212F7CF0E949D0B802B57
:100B60000E94A40BCCCFF11006C00E94B10B802FC5
:100B70000E94DD04C4CF31E0F31609F2F6CF112351
:100B800031F085E08F1508F4BACF802FE0CF94E0E4
:100B90009F1508F4B4CFEBCFFF2049F3D93349F4C4
:100BA000FFEF27EE33E0F15020403040E1F700C086
:100BB00000008D2F0E945C04A2CF8C2F8695869515
:100BC000837069F0813009F09ACF8D2F9C2F93703C
:100BD000111102C090E080E00E94401A90CF8D2F4A
:100BE0009C2F9370111102C090E080E00E942A1A9D
:100BF00086CF8D2F112329F00E94EB110E94BE1287
:100C00007ECF0E944512FACF8C2F837079F5111197
:100C100076CF4D2F429546954770440F440F8D2F48
:100C20008F70042E01C0880F0A94EAF72D2F2071CF
:100C3000D4FF07C02FE030E001C0220F4A95EAF749
:100C40002095C695C695C370822BC23049F058F4E2
:100C5000C13019F00E94860752CF0E9480074FCF03
:100C60000E948C074CCF0E947D0749CF86951123A7
:100C700011F08C2F8170882309F441CF4D2F4295BC
:100C800046954770440F440F8D2F8F70042E01C07E
:100C9000880F0A94EAF72D2F2071D4FF07C02FE0A8
:100CA00030E001C0220F4A95EAF72095C695C69517
:100CB000C370822BC23049F058F4C13019F00E9441
:100CC000D7071DCF0E94D1071ACF0E94DD0717CF8B
:100CD0000E94980714CFCF70112329F08C2F0E9407
:100CE000AC078D2F34CF8D2F0E94DD048C2F0E94F6
:100CF000B80705CFD23F51F160F4D03FB9F0D13FF2
:100D000081F0112309F449C0F110AECE8C2F8F7100
:100D100021C0D33F11F1D43FA1F78091800282FD21
:100D200026C08C2F8F71112311F314C0112349F0A9
:100D300084E08F1508F4E3CE8C2F8F710E94C507D5
:100D4000DECE95E09F1508F4DACEF6CF8C2F8F71AA
:100D50001111CDCF0E94AC07D2CE112329F08C2FD8
:100D60008F710E94A307CBCE0E949F07C8CE11238C
:100D700049F0CF718C2F0E94AC0763E08C2F0E944A
:100D8000000CBDCE81E00E941E0CE1E0EF1508F0E2
:100D9000B6CE82E00E941E0CB2CEF110FFCE8C2F98
:100DA0008F71A5CF0F931F93CF93DF93EC016881D1
:100DB00079818A810E9494088C010E94E3070E9435
:100DC0007C07B801CE010E94E404DF91CF911F910E
:100DD0000F910895CF93DF93EC018B819C81892B38
:100DE00029F08881998189238F3F51F4DF91CF9138
:100DF0000895CE010E94D206CE010E94A502F6CF30
:100E0000CE010E94F7028111F4CF0E94730B882358
:100E100069F38A81882351F38091800282FFE6CFB3
:100E200082E00E941E0CE2CF90E080E00E942A1A2D
:100E300090E080E00E94401A0E949A0B0E94BB0B37
:100E40000E94DA120E94BE1208950E94620B0E9454
:100E5000140708950E948A0B0E9425070895929511
:100E60009F70963091F058F4925F9F70923058F4D2
:100E7000803F19F030F4883E30F481E008959A5FA5
:100E8000F4CF843FD1F380E00895883EB0F3813FF2
:100E9000D1F7F3CFFC0183819481892B29F08081E4
:100EA000918189238F3F11F480E0089580819181A1
:100EB0000E9489080E942F070895A5E0B0E0E3E6AC
:100EC000F7E00C94F4232596E2E00C941024A6E0BD
:100ED000B0E0EDE6F7E00C94F4232696E2E00C9403
:100EE000102408950E94710708950E94720780934C
:100EF000B0010E941407089508950E94750708958F
:100F00009091B001892B0E94750708959091B001CE
:100F100089230E94750708959091B00189270E9446
:100F2000750708950E94710708950E949207089519
:100F30000E9495078093AF010E941407089580E0F6
:100F40000E949807089591E001C0990F8A95EAF7E9
:100F5000892F0E949807089521E030E001C0220FF8
:100F60008A95EAF78091AF01822B0E949807089535
:100F700021E030E001C0220F8A95EAF720958091A8
:100F8000AF0182230E949807089521E030E001C05C
:100F9000220F8A95EAF78091AF0182270E94980775
:100FA00008959091AF01892B0E9498070895909120
:100FB000AF0189230E94980708959091AF01892776
:100FC0000E94980708950895262F277091E001C088
:100FD000990F2A95EAF723E0769567952A95E1F728
:100FE000FB01EE0FFF1FE60FF71FE40FF51F50E0A8
:100FF00040E0682F70E08191DF0111979B01042E82
:1010000002C0369527950A94E2F72170219528278A
:10101000292328272C934F5F5F4F4330510559F701
:101020000895A82FA77023E0969587952A95E1F754
:10103000FC01EE0FFF1FE80FF91FE60FF71F50E04E
:1010400040E080E0219130E00A2E02C036952795DD
:101050000A94E2F721703327042E01C0220F0A946C
:10106000EAF7822B4F5F5F4F4330510559F70895E0
:10107000262F933070F48C3060F4682F70E08CE091
:10108000989F600D711D112440EA51E0822F0E944B
:10109000E4070895292F933068F48C3058F490E0D9
:1010A00060EA71E03CE0239F800D911D11240E94B5
:1010B0001108089580E00895CF92DF92FF920F9378
:1010C0001F93CF93DF936C010091AF018091B0012A
:1010D000082BC7E0D0E010E0FC2EC8010C2E02C0A7
:1010E000959587950A94E2F780FD0CC02197A0F7AB
:1010F000F12C8F2DDF91CF911F910F91FF90DF90F9
:10110000CF900895B6018C2F0E94E60E019771F3DF
:10111000F0CFCF93DF93EC010E945C08BE010E94E8
:10112000E60EDF91CF9108951F93CF93DF93EB01EC
:1011300090919F01992339F0CB010E948908DF919A
:10114000CF911F910895882369F0CB010E945C081C
:10115000182F682FCE010E943808BE01812F0E94EF
:10116000E60EEDCFCB010E944A08182FF6CF1F9351
:10117000CF93DF93C091B10116E08091B2018C133F
:1011800004C0DF91CF911F910895D0E01C9FF00122
:101190001D9FF00D1124ED54FE4F4081518162815D
:1011A0007381848195810E9467072196C770E5CF7E
:1011B0004091E3015091E4016091E5017091E601F5
:1011C0008091E7019091E8010E94670708951F93BD
:1011D000CF93DF938091E801807F09F049C080912F
:1011E000E501882309F444C08091B101C091B201A6
:1011F0006091E3017091E401A091E601B091E701F3
:10120000D62FD72316E0C81799F190E0109711F068
:10121000DF3F19F401968770F6CF189F9001199F50
:10122000300D1124F901ED54FE4F41814713F2CFE7
:1012300040814613EFCF42814111ECCF438154816D
:101240004A1B5B0B483C510528F78091E8018F70E1
:1012500080618093E801F901E854FE4F80818F702E
:101260008061808383EE91E00E94EA060E94B708C5
:10127000DF91CF911F910895A1E1B0E0E2E4F9E0A0
:101280000C94EC238C0185E0F801DE011D960190A1
:101290000D928A95E1F7F801E28083EEC82E81E095
:1012A000D82E6091E6017091E7016115710509F48E
:1012B0004EC19091E3012091E401892F82238F3F59
:1012C00009F445C140815181A380B480F090E501CB
:1012D000F501E61BF70BFF2009F4EAC08091E80155
:1012E000382F307FE83CF10508F0A3C031116DC004
:1012F000FE2C251316C0941314C0E11012C08F7079
:1013000080618093E8010E94D808C6010E94EA0625
:101310008091E801F80185838F2D6196EAE00C94B5
:101320000824A114B10429F0842F85238F3F09F0EC
:1013300027C180E0F82FF170DF2E80FF3CC0809144
:10134000B1012091B20136E0821315C04D875E874E
:101350008D859E850E948908292F22952F70223025
:10136000F0F0243018F59F70F1F0F8019581907F2E
:10137000D1F4D12C1EC090E0389FF001399FF00DC0
:101380001124ED54FE4F6181651306C06081641322
:1013900003C06281E6120FC001968770D5CF9F709F
:1013A00011F0882331F3805E883018F3C8010E9461
:1013B000EA06FD2CB1CFEE2009F4AECF8091E80112
:1013C00081608093E801F12CA7CF251306C0941308
:1013D00004C0F801EE2009F487C0C8010E944A0742
:1013E000882319F1EE2009F18091E801803270F034
:1013F0002091E3013091E40138872F831986BB8661
:10140000AA868C87CE0107960E94EA0686E0F8013C
:10141000A3EEB1E001900D928A95E1F70E94E708F2
:101420000E94D808FF24F39477CFC8010E94EA06EF
:10143000F9CF311113C07A2DB98AA88A6E2D898906
:101440000E945D0783EE91E00E94EA0686E0F601C5
:1014500011928A95E9F70E94D808B5CF25130FC0DD
:1014600094130DC0E1100BC0F8018583C8010E94E0
:10147000EA0686E0F60111928A95E9F74DCFC80198
:101480000E944A07882389F2EE2079F28091E801D0
:10149000803208F4BBCF2091E3013091E4013A831C
:1014A00029831B82BD82AC828E83CE010196ACCF94
:1014B000E83CF10508F03EC0FE2CEE2009F4B5CF63
:1014C00025132AC0941328C08091E80180FD1BC019
:1014D000982F907FC1F0F8018583903F31F0982FCD
:1014E000907F905F8F70892B8583C8010E94EA06E8
:1014F00086E0F801A3EEB1E001900D928A95E1F744
:101500000E94D80809CF86E0F801A3EEB1E001906F
:101510000D928A95E1F700CFC8010E944A07811118
:1015200075CF8091E80181608093E801C8010E9435
:10153000EA06F2CE7A2DB98AA88A6E2D89890E9490
:101540005D0786E0F60111928A95E9F7D9CFEE2082
:1015500009F46BCFC8010E944A07F82E882309F4CA
:1015600064CF86E0F801A3EEB1E001900D928A9578
:10157000E1F783EE91E00E94C5030E94E708C0CF27
:1015800081E08E25D7CEACE0B0E0E9ECFAE00C9437
:10159000F3234F83588769877A878B879C87CE018F
:1015A00007960E943C09882369F08A859B85892BD0
:1015B00039F04F815885842F85238F3F09F06BC008
:1015C00016E05FC086E0FE013796DE0111960190BD
:1015D0000D928A95E1F78A859B85892B89F38F8106
:1015E000988589238F3F61F32091B20130E0C901D2
:1015F0000196877099274091B1014817190671F437
:101600000E942A071092B2011092B10186E0E3EE27
:10161000F1E0DF011D928A95E9F7D2CF96E0929F23
:10162000D001939FB00D1124AD54BE4FFE013196F1
:1016300001900D929A95E1F78093B2010E94B7084C
:10164000BFCF819FC00111248D549E4F0E943C0941
:101650008823E9F0E091B1011E9FF0011124ED54BF
:10166000FE4F4081518162817381848195810E9406
:1016700067078091B10190E0019687709927809368
:10168000B1018091B1019091B2018913DACF2C960A
:10169000E3E00C940F2469857A858B859C850E94F4
:1016A00067078ECF682F80910001909101010E9401
:1016B000EA1A0895682F80910001909101010E941B
:1016C000F81A089580910001909101010E94061B73
:1016D0000895809109028595859585950895809155
:1016E00009028770089590910902977081E009F4CA
:1016F00080E0089580912C02089590912C02892B0E
:1017000080932C020895809590912C0298239093B9
:101710002C02089510922C02089590912B02892B8F
:1017200080932B020895809590912B02982390939B
:101730002B02089510922B02089580910A020895B9
:1017400008950E94A00B08959091800292FF08C016
:1017500090910A02981721F080930A020E94A10B2F
:10176000089580910A02882329F010920A0280E0ED
:101770000E94A10B0895CF93DF93E0910001F091B7
:10178000010180912C028083E0910001F091010120
:10179000808190912B02892B808390910A0299235A
:1017A00081F0E0910001F09101018081892B80831B
:1017B00080910001909101010E94561A81110E94AE
:1017C000B10BC0910001D091010140E250E069EEFF
:1017D00071E0CE010E942F24892B59F080E2FE0196
:1017E000A9EEB1E001900D928A95E1F7CE010E9439
:1017F000021ADF91CF91089508950E94FC0B08957D
:101800009091800292FF11C098E0899F900111246D
:10181000622B609309020E94AC07809109028595B2
:10182000859585950E94FD0B08950E94AC0708954B
:101830001092090280E00E94FD0B08959091090228
:101840008095892380930902282F277091F4282FEF
:10185000082E000C330B9217130659F0909180025A
:1018600092FF07C08595859585950E94B8070E94CF
:10187000180C08959091800292FB222720F92817D6
:1018800069F080FB92F99093800280917F029091A1
:1018900080020E948C0C82E00E941E0C08958091B0
:1018A000800282FB882780F991E089270E943A0C08
:1018B000089581E00E943A0C089580E00E943A0C5D
:1018C00008956FEF7FEF90E080E00E94712408950B
:1018D00090E080E00E944D24883E9E4F19F40E94C3
:1018E000F813089580E0089582E090E00E94452476
:1018F000089583E090E00E9445240895CF9384E00A
:1019000090E00E944524C82F82E290E00E94452486
:10191000982F8C2FCF910895CF93C92F682F84E0F3
:1019200090E00E9453246C2F82E290E00E945324A6
:10193000CF910895AB01BC018FE090E00E94652437
:101940000895AB01BC0183E190E00E9465240895F5
:1019500060E070E0CB010E94A10C089560E070E0AF
:10196000CB010E949A0C0E94A80C089568EE7EEFAD
:1019700090E080E00E94712460E082E090E00E94AC
:10198000532460E083E090E00E9453241092B00161
:1019900060E084E090E00E94532464E082E290E002
:1019A0000E94532460E085E090E00E94532460E0B0
:1019B00086E090E00E9453246FEF87E090E00E9461
:1019C000532440E050E0BA0188E090E00E94652492
:1019D00060E08DE090E00E94532440E050E0BA01C6
:1019E00088E190E00E94652460E087E190E00E9439
:1019F000532440E050E0BA018CE190E00E9465245D
:101A000070E060E080E290E00E94712440E050E0ED
:101A1000BA0188E190E00E94652480E00E941114E0
:101A20000E9440140E94AE0C08950E94B60C0895C6
:101A3000682F8EE090E00E94532408950E94D41BEA
:101A40006093390270933A0280933B0290933C0278
:101A50006093350270933602809337029093380278
:101A60000895089508950E94320D089508950E94E2
:101A7000360D089580ED9FE00E94EB190E94310D14
:101A80000E94330D089581E008950E94430D08954A
:101A9000089508950E94480D0E94490D08950E94DE
:101AA000EF0F0E94640308950E94BF1B0E94501410
:101AB0000E94C5100E944F0D0E94370D0895AAE0A4
:101AC000B0E0E5E6FDE00C94E9230E94DB10009114
:101AD0002F021091300280E00E941210081719079F
:101AE000D1F5009131021091320281E00E94121072
:101AF0008017910781F5009133021091340282E042
:101B00000E9412100817190731F50E94C81B8C019A
:101B100080912D0290912E0208171907A1F08FEFE6
:101B200089838A831B820E94C81B8160782F9D83D2
:101B30008C8349815A816B818D810E94900310931F
:101B40002E0200932D020E94FC120E9477032A9617
:101B5000EDE00C94052480913D0281FD0E941B1054
:101B60000E94450D782E2FE2822E22E0922E10E068
:101B7000812F0E9412107C01F401A190B1904F01BD
:101B80008A159B0561F1A826BF2400E0CC24C394EC
:101B9000D12CC5018C219D21892BC1F07720B1F07A
:101BA0000E831F8321E0C7018C219D21892B09F41D
:101BB00020E028870E94C81B8160782F9A87898738
:101BC0004E815F8168858A850E9490030F5FCC0CEF
:101BD000DD1C0C30F1F6F4013297F182E0821F5FD8
:101BE000133031F60E941E0DAECFCF93DF930E94CB
:101BF000EB0EEC01811521E5920708F042C081153A
:101C000030E5930708F09FC0883E910530F5803E8F
:101C1000910508F094C0883A910588F4853A9105B9
:101C200008F086C08130910509F489C0009709F455
:101C300086C0049708F083C0D0E0C0E080C08F3B2E
:101C40009105D0F7C85AD0E0CC0FDD1FC85BDE4F3E
:101C50000990D881C02DD46472C0811540E29407E8
:101C600050F4C11581E0D80708F069C0C03FD10524
:101C700018F3D06564C081159044F0F2DF70D06A2B
:101C80005EC0811535E5930718F5811544E5940785
:101C900008F085C0C11583E5D80708F06CC0C115F0
:101CA00022E5D20708F462C0CE018370992721E0B3
:101CB00030E002C0220F331F8A95E2F7C695C69521
:101CC00080E2C89FE0011124C22BD32BDC6837C00F
:101CD000811539E59307A8F4811548E5940708F0C4
:101CE00063C0C11586E5D80708F0A6CF8C2F0E94E7
:101CF0008D0FC82FD0E0DC2FCC27CC27DF71D0622E
:101D00001EC081152AE5920708F453C0905681152C
:101D1000904208F091CF8D2F8F710E948D0F90E02F
:101D2000982F882788279F719C012C2BE901E7CFEA
:101D3000C55AD0E0CA58DE4FC881D0E0D064CE0189
:101D4000DF91CF9108958370992721E030E002C0A0
:101D5000220F331F8A95E2F7C695C69540E2C49FCD
:101D6000E0011124C22BD32BDD68E9CFDC2FCC2777
:101D7000C16FD06AE4CFCE018370992721E030E0B3
:101D800002C0220F331F8A95E2F7C695C69540E23E
:101D9000C49FE0011124C22BD32BDA68D0CFD82FF7
:101DA000CC27C46FD06ACBCFD82FCC27C06FD06AD6
:101DB000C6CF8F700E948D0F34E0D695C7953A95A7
:101DC000E1F7CF709C2FEC01D069B9CF0E94531876
:101DD0000E94F50D089582389105B9F1B0F4813370
:101DE000910509F47DC048F48932910509F46DC06C
:101DF0008A32910509F47BC008958533910509F471
:101E00005FC08933910509F10895833E9105D9F1A9
:101E100038F4803E910529F1823E910579F10895CB
:101E2000863E9105D9F1873E910509F43EC0843E76
:101E3000910541F52091800221FF24C080917F020D
:101E400084FD19C087EE90E0089520917F022370F1
:101E500009F05AC02091800223FF14C089E290E06B
:101E6000089520917F0220FD38C03091800230FF1C
:101E700009C024FF43C090E080E0089520917F02D4
:101E800022FDF7CF089520917F0222FD3AC03091C4
:101E9000800230FD39C024FFF5CFEDCF20917F02C5
:101EA00023FFF0CF24FDE7CFCDCF20917F0223FD8C
:101EB0002EC03091800231FFEECF84EE90E0089585
:101EC00020917F0225FFDECFC9CF20917F0225FD23
:101ED00021C02091800223FFD5CF89E390E0D2CFAB
:101EE00020917F0226FFCECF8AE290E008952091D4
:101EF0007F0226FFC7CF81E390E0089583EE90E054
:101F0000089582EE90E0089580EE90E0089586EEC8
:101F100090E0089585E390E0089590917F0292FF0C
:101F200006C0282F28712830F9F4877F846093FF3A
:101F300006C0282F28712831F1F4877E8461209112
:101F4000800220FF06C0382F38713830D9F4877FDF
:101F5000816021FF06C0282F28712831D1F4877EA7
:101F6000816194FD877E0895282F24712430F9F62D
:101F70008B7F8860DCCF282F2471243101F78B7E82
:101F80008861DDCF382F3171313019F78E7F88604D
:101F9000E0CF282F2171213121F78E7E8861E1CF9A
:101FA00080E008950E94610C08950E94DB102FEFDD
:101FB00086E791E0215080409040E1F700C00000AA
:101FC0000E94DB1080E00E94121080FF04C00E947B
:101FD000D20F0E94131C08950E94D50F08950E94ED
:101FE000680C811102C00E94150D0E94740C809330
:101FF0003D020E947E0C9093800280937F020E949B
:10200000EC0F0E94790C0E947D078091AF010E9425
:102010009507089508950E940A10089508950E9452
:102020000E100895E82FF0E0EE0FFF1FE957FD4F67
:10203000808191810895089580EA8A95F1F7089545
:1020400000C008950E941C100895F894E82FE295AE
:10205000EF70F0E031A1282F2F7081E090E001C0F7
:10206000880F2A95EAF7982F9095932391A392A130
:10207000892B82A378940895CF93DF9381E90E94FE
:10208000251080E90E94251084E90E942510C9E7E7
:10209000D1E089918F3F11F00E94251081E0C53871
:1020A000D807B9F7DF91CF910895AF92BF92DF9231
:1020B000EF92FF920F931F93CF93DF938C01D62E55
:1020C000C62FD0E0CE018B579E4F7C01FC012081B2
:1020D0002F3F09F44DC0F894E22FE295EF70F0E045
:1020E00031A12F7081E090E001C0880F2A95EAF7B6
:1020F000932F982B91A392A18095892382A3789402
:102100000E942010E9E7F1E045E851E021E030E0ED
:10211000B12CA12C61916F3FA9F1A62FA295AF70B0
:10212000B0E090968C9190E06F7002C09595879585
:102130006A95E2F780FD26C0C901A82AB92A220FB4
:10214000331F4E175F0731F7F70180818F3F11F082
:102150000E94251061E0A114B10409F460E08D2D06
:102160000E942210CC0FDD1FC00FD11FB982A882A0
:10217000DF91CF911F910F91FF90EF90DF90BF9073
:10218000AF90089590E080E0D8CF0E943C1086E0A8
:10219000E7E8F2E0DF01982F1D929A95E9F7E1E870
:1021A000F2E0DF011D928A95E9F783E00E941911A0
:1021B0000E94D8020895A6E0B0E0E1EEF0E10C94B0
:1021C000F2238E010F5F1F4F86E0F80111928A956E
:1021D000E9F760E0C8010E94551061E0C8010E9463
:1021E000551062E0C8010E94551046E050E0B80169
:1021F00081E892E00E942F2421E0009709F420E07A
:10220000892B41F086E0F801A1E8B2E001900D923F
:102210008A95E1F743E067E872E081E892E00E9486
:102220001A11182F0E94DB02812F2696E4E00C94ED
:102230000E240895CF92DF92EF92FF921F93CF93D7
:10224000DF936C017B01C42F222349F081E080934E
:1022500040020E94C81B90933F0280933E0210915F
:10226000400211110AC010E0812FDF91CF911F9120
:10227000FF90EF90DF90CF90089580913E02909173
:102280003F020E94E01B059770F3D0E0CC0FDD1FEA
:10229000AE01B601C7010E942F24892B41F0AE0187
:1022A000B601C7010E943C2410924002DDCF10E02D
:1022B000FBCF0E94221E0E94540D0E942F1E0895E3
:1022C0000E94341E0E945F0D0E944E1E08950E94BF
:1022D000611B0E94081E0E943A0D0E9459110E9423
:1022E00060110E944A0DFBCF8091470280FF0DC014
:1022F0006091070170E0660F771F6038710570F517
:102300006115710569F1862F089581FF07C06091FD
:10231000070184E0689FB0011124EFCF60910701AD
:1023200082FD0AC0809146028823A9F0209106010F
:1023300060910701821710F088E0ECCF869FC00102
:10234000112433E0880F991F3A95E1F7622F70E06E
:102350000E94C323D2CF68E070E0D5CF8FE7089505
:1023600081E008958091470280FF0CC060910301D5
:1023700070E075956795759567956115710549F1DB
:10238000862F089581FF06C06091030170E0759566
:102390006795F3CF6091030182FD0BC090914502D8
:1023A0009923A1F06091020180910301961738F002
:1023B000682F70E06038710500F38FE70895899FFA
:1023C000C001112470E00E94C323F4CF61E070E0EB
:1023D000D7CF81E00895803F31F40E947411819538
:1023E00080934B020895813F19F40E947411F8CF35
:1023F000823F31F40E947411819580934A020895BE
:10240000833F19F40E947411F8CF893F29F40E9488
:10241000B21180934C0208958A3F21F40E94B211B8
:102420008195F7CF8B3F31F40E94B2118195809353
:102430004D0208958C3F19F40E94B211F8CF9CE030
:10244000980F953070F4845F990B21E030E001C063
:10245000220F8A95EAF780914902822B80934902E4
:1024600008958D3F31F48091470281608093470247
:1024700008958E3F21F4809147028260F7CF8F3F0D
:10248000B9F7809147028460F1CF40914A02803FC2
:1024900059F480914B0287FF0DC010924B024111FD
:1024A0000BC01092460208C0813F81F480914B021C
:1024B00018169CF3442381F080914C0290914D02B8
:1024C000892B09F05AC0109245020895823F49F4C1
:1024D00047FFF0CF10924A0280914B028111ECCF5E
:1024E000E0CF833F19F41416ACF3E4CF90914C0283
:1024F000893F29F41916F4F610924C02DBCF8A3F7B
:1025000019F497FFD7CFF8CF90914D028B3F29F464
:1025100097FFD0CF10924D02CDCF8C3F19F41916F2
:10252000CCF3C8CF9CE0980F953090F4845F990B62
:1025300021E030E0B90102C0660F771F8A95E2F70B
:10254000CB01809590914902892380934902B2CFB3
:102550008D3F31F4809147028E7F80934702AACF4E
:102560008E3F21F4809147028D7FF7CF8F3F09F096
:10257000A1CF809147028B7FF0CF08950E94C81BA6
:102580009C0190914A0280914B02982B21F030934C
:1025900044022093430290914C0280914D02982B6B
:1025A00021F0309342022093410288E492E00E949D
:1025B0001C1A089586E0E8E4F2E0DF011D928A9596
:1025C000E9F71092460210924502109247020895D0
:1025D000FC01828181110EC0838181110BC0848135
:1025E000811108C091E08581811101C090E0892F9F
:1025F0008170089581E0FCCFA6E0B0E0E2E0F3E175
:102600000C94F32386E0E8E4F2E0DE0111960190F9
:102610000D928A95E1F710924A0210924B021092A5
:102620004C0210924D028B819C81892B89F0809104
:102630004302909144020E94E01BAC01909146023B
:102640009923C9F1809108018417150608F440C048
:102650008D819E81892B91F080914102909142025F
:102660000E94E01BAC0190914502992309F471C0CE
:10267000809104018417150608F479C0BE016F5FCC
:102680007F4F88E492E00E94181B811105C088E406
:1026900092E00E94E81281110E94BE1286E0FE01C3
:1026A0003196A8E4B2E001900D928A95E1F7269662
:1026B000E3E00C940F24209109018AE0289F900107
:1026C00011242417350720F69F5F9093460202C01D
:1026D0009F3FD1F71B81112359F00E9474119FEF86
:1026E00011160CF491E0899F802D112480934A02E9
:1026F0001C81112359F00E9474119FEF11160CF4E4
:1027000091E0899F802D112480934B0230914A02E1
:10271000332309F49DCF20914B02222309F498CF53
:1027200045EB3403C0011124992359F090934A02D8
:1027300045EB240390011124332339F030934B02ED
:1027400087CF81E080934A02F3CF81E080934B02F0
:102750007FCF209105018AE0289F90011124241742
:10276000350708F08BCF9F5F9093450202C09F3FD3
:10277000D1F71D81112359F00E94B2119FEF11165C
:102780000CF491E0899F802D112480934C021E81CE
:10279000112359F00E94B2119FEF11160CF491E031
:1027A000899F802D112480934D0230914C02332358
:1027B00009F464CF20914D02222309F45FCF45EB49
:1027C0003403C0011124992359F090934C0245EB36
:1027D000240390011124332339F030934D024ECF5E
:1027E00081E080934C02F3CF81E080934D0246CF8D
:1027F00083E290E00E944524823289F484E290E0F2
:102800000E944524883059F485E290E00E944524D6
:1028100091E0803309F090E0892F8170089580E085
:10282000FCCFCF93C82F6FEF811162E283E290E07B
:102830000E9453246FEFC11168E084E290E00E948F
:1028400053246FEFC11160E385E290E00E945324AE
:10285000CF910895089586E290E00E944524682F64
:1028600070E090E080E008950895CF93C62F0E9415
:1028700034146C2F86E290E00E945324CF91089587
:1028800080E00E94111460E070E0CB010E943514DA
:102890000E94CD170E94B01881E00E941114089583
:1028A0000E942A140E942B140E9434140E94F813D0
:1028B000811102C00E9440140895CF93FB01C28190
:1028C000CC2309F19C0122513F452031310520F5EF
:1028D00082510E94C018C0E08C2FCF91089581E0F2
:1028E0000E94AC0743E062E081E00E94CE02F3CF99
:1028F00081E00E94B80743E062E081E00E94CE02DE
:10290000EBCF82E0F6CF8031FFE59F0789F381317D
:102910009F45B9F3C1E0E0CF8031EFE59E07F9F2C2
:1029200081319F45C9F682E0DBCF2FEFFC01208388
:102930000895EF92FF920F931F93CF93DF93EC01D3
:10294000062FE881E150E33108F05DC0F0E0EB567E
:10295000FB4D0C94D72319828AE08A83602FCE0125
:102960000E94DB1CCDB7DEB7E6E00C940C24898115
:10297000823069F0833071F08130D9F40E94D41B29
:102980000E94DD236A837B838C839D83E7CF0E9433
:102990002B14F6CF7E0110E0812F0E941210F70158
:1029A000928383831F5FF2E0EF0EF11C1330A1F7D7
:1029B000D5CF602FCE010E949514D0CF898182306F
:1029C000C1F76A817B818C819D810E94DD230E94F9
:1029D0003514C4CF4B816A8189810E948F17982753
:1029E000892798279D838C83B9CF2C813D813227FD
:1029F000232732274B816A8189810E94B117AECF8C
:102A00000E94CD17ABCF8FEF8883A8CF0E946118AB
:102A10008983A4CF0E9463189827892798279A83CF
:102A200089839CCF6B8170E089819A81AE014C5F74
:102A30005F4F9827892798270E9466188FCF6B8150
:102A400070E089819A81AE014C5F5F4F982789279A
:102A500098270E948B1882CF0E94B0187FCF0E94C7
:102A60007D17D6CF6B8170E089819A81AE014C5F72
:102A70005F4F9827892798270E940B186FCF6B818B
:102A800070E089819A81AE014C5F5F4F982789275A
:102A900098270E942F1862CFCF93DF93EC01FB01A0
:102AA0008281882309F464C1C330FDE5DF07E0F5C6
:102AB000CA3F9CE5D90730F49E0122503C452431A1
:102AC0003105D8F50E947E0C9093800280937F029E
:102AD000C231ECE5DE0709F41FC108F06EC0C93051
:102AE0008CE5D80709F4F2C008F03FC0C530ECE52A
:102AF000DE0709F4DBC058F5C3308CE5D80709F4CC
:102B0000CDC008F0CFC080917F028160C230DC452B
:102B100009F4AEC080917F02909180020E948C0CDB
:102B20000E942A0780E009C0C53AEDE5DE0751F2B0
:102B300038F4C1369DE5D90729F2DF91CF91089588
:102B40009E012D5A3D4523303105B8F7BBCF80910A
:102B50007F028062C730FCE5DF0709F489C008F412
:102B6000B1C080917F02806483C0CD309CE5D907DD
:102B700009F4BAC070F480917F028E7FCB30FCE5FF
:102B8000DF0709F475C008F4A7C080917F028D7F2C
:102B90006FC0CF309CE5D90709F4B6C008F4A8C0CF
:102BA000C031FCE5DF0709F4B3C0C131DC4509F0F1
:102BB000B1CF80917F028F7B5BC0CF3F9CE5D9076F
:102BC00009F4B4C098F5CA3FFCE5DF0709F472C008
:102BD000B8F4C4319CE5D90709F4B6C008F4A2C022
:102BE000C531DC4509F096CF80917F0282FB9927A1
:102BF00090F921E0922790FB82F990FB83F938C08D
:102C0000CC3F8CE5D80709F477C008F457C0CD3F16
:102C1000ECE5DE0709F474C0809180028360CE3F4A
:102C2000DC4509F077CF8093800274CFC1368DE503
:102C3000D80709F496C068F4C130EDE5DE0709F461
:102C40008CC008F477C0C230DD4509F063CF80E066
:102C500085C0CD3A9DE5D907E9F068F490917F02EF
:102C6000892F8E7F90FF8160C53ADD4509F052CFF4
:102C700080937F024FCFCE3A8DE5D80789F1CF3AC6
:102C8000DD4509F047CF90918002892F877F93FF20
:102C90008860C9CF809180028860C5CF80917F0213
:102CA0008260E6CF80917F028460E2CF80917F02D4
:102CB0008860DECF809180028160B5CF80918002F4
:102CC0008260B1CF80917F028061D2CF0E942A07BB
:102CD00080917F028068CCCF80917F028C60C8CFCA
:102CE00080918002877F9FCF80917F028B7FC0CFB2
:102CF00080917F02877FBCCF809180028E7F93CFAF
:102D0000809180028D7F8FCF80917F028F7EB0CFA8
:102D100080917F028F7DACCF0E942A0780917F0235
:102D20008F77A6CF80917F02837FA2CF8091800290
:102D30008C7F79CF80918002982F909591708E7FB3
:102D4000892B90FB81F96FCF0E942A0790917F0217
:102D5000892F97FB87F980588BCF81E00E94180D4F
:102D6000D9CE90917F02892F8F7E94FF806180CF92
:102D700081E0E3CEB0E0A0E0E0ECF6E10C94EF23DC
:102D8000E82FF0E0E453FE4FD490282F26952695A7
:102D9000269530E0F901E459FD4F0491877010E069
:102DA000082E02C0159507950A94E2F701701127C5
:102DB000F901E45AFD4FE490F12C082E02C0F5947D
:102DC000E7940A94E2F791E0E922FF24F901E45B39
:102DD000FD4FC491D0E002C0D595C7958A95E2F722
:102DE000C170DD270115110519F081EE0E94CB039A
:102DF000E114F10419F086EE0E94CB038D2D0E94A0
:102E0000CD04E114F10419F086EE0E945C04011572
:102E1000110519F081EE0E945C04CD2B19F08CE2B3
:102E20000E94CD04CDB7DEB7E7E00C940B24EF92FF
:102E3000FF920F931F93CF93DF93EC01162F0AE0BD
:102E40008881882309F454C0813009F04EC08981FB
:102E5000813099F47E0122E0E20EF11C8A810E9409
:102E6000CD04E7012196812F815050F3EFE9FFE077
:102E70003197F1F700C00000F7CF823041F47E01B6
:102E800082E0E80EF11C8A810E94CB03EACF8330F6
:102E900041F47E01E2E0EE0EF11C8A810E945C04A6
:102EA000E0CF843011F02196DDCF2A81229690E088
:102EB00080E0AE014F5F5F4F2053330B2A30310566
:102EC00048F0019778F2EFE9FFE03197F1F700C0A1
:102ED0000000F7CF089FB001099F700D1124C901B0
:102EE000860F971F2981EA01E4CF0E94BA16BACF54
:102EF000CDB7DEB7E6E00C940C2484E0089550E0F2
:102F0000440F551F98E1699F400D511D112498E40D
:102F1000899F400D511D1124CA01879608950F9372
:102F20001F93CF93DF938430C8F46330B8F44C30F0
:102F3000A8F40E947F178C010E944524C82FD0E07E
:102F4000DC2FCC27C80101960E9445249E01282B26
:102F5000C901DF91CF911F910F91089590E080E01A
:102F6000F8CF0F931F93CF93DF93122F032F84304B
:102F700078F4633068F44C3058F40E947F17EC0109
:102F8000602F0E945324612FCE0101960E9453248A
:102F9000DF91CF911F910F910895B0E0A0E0E3ED94
:102FA000F7E10C94ED239CEAC92E90E0D92ED0E0F5
:102FB000C0E07601B12C20C00E94600221E030E028
:102FC0008C171D0641F03CF0F801EE0FFF1FEE0DCF
:102FD000FF1D25913491402F6B2D8C2F0E94B1172E
:102FE0000F5F1F4F0C30110539F788E1E80EF11C17
:102FF000B39483E0B81619F010E000E0DDCF21961D
:1030000088E4C80ED11CC430D10599F6CDB7DEB71F
:10301000E9E00C940924EF92FF920F931F93CF9352
:10302000DF93EC018A017C01E60EF71ECE01879644
:10303000CE15DF0529F4CDB7DEB7E6E00C940C24FD
:10304000C03221E0D20740F40E944524F801808379
:103050000F5F1F4F2196EACFF8011082F9CFB0E041
:10306000A0E0E5E3F8E10C94EE237C016A018C0119
:10307000060F171FEC01CE018796C017D10729F460
:10308000CDB7DEB7E8E00C940A24C03221E0D207C5
:1030900040F4FE01EE19FF09EC0DFD1D60810E9458
:1030A00053242196E8CF462F843040F4733030F417
:1030B0006C3020F4672F0E948F17089590E080E015
:1030C000089580E1089589EB92E00895EF92FF92D0
:1030D0000F931F93CF93DF93EC018A017C01E60EDF
:1030E000F71ECE01895B9E4FCE15DF0529F4CDB7C3
:1030F000DEB7E6E00C940C24C93B22E0D20740F492
:103100000E944524F80180830F5F1F4F2196E9CF6D
:10311000F8011082F9CFB0E0A0E0E1E9F8E10C9409
:10312000EE237C016A018C01060F171FEC01CE0112
:10313000895B9E4FC017D10729F4CDB7DEB7E8E011
:103140000C940A24C93B22E0D20740F4FE01EE1998
:10315000FF09EC0DFD1D60810E9453242196E7CFED
:10316000CF93DF93C7E4D1E060E0CE010E94532407
:103170002196C11584E0D807B9F7DF91CF91089562
:10318000A4E0B0E0E6ECF8E10C94EF23F82E8FE039
:103190008F1548F18FEF93E00E944524811123C0E1
:1031A00007E411E0F11023C019821A821B821C82ED
:1031B000DD24D39478018FEFE81AF80AC8010E9441
:1031C000452489831A82882371F09FEF980F9330EA
:1031D000D8F48A83D9820E5F1F4FC7010E9445240D
:1031E0008B83811112C02496E7E00C940B24011507
:1031F00084E01807C1F3C8010E944524811101C071
:10320000FA940F5F1F4FCECF870160E0CE01019689
:103210000E941717CFCFCF93DF93EB0186319C45E8
:1032200011F50E947A0B9A81992399F08A7A91E09C
:1032300009F490E090934E02811109C089E20E9446
:10324000520B0E94BB0B80E0DF91CF91089585E384
:10325000F6CF80914E02811104C089E20E945A0B80
:10326000F0CF85E3FBCF81E0EFCF0F931F93CF9398
:10327000DF93C42FD22FFC0182818823C9F04093B1
:1032800051020E94C81B9093500280934F0280E22B
:103290008C0F883040F4C77081E001C0880FCA9558
:1032A000EAF70E94D604DF91CF911F910F91089504
:1032B00010915102141332C080914F02909150022C
:1032C0000E94E01B883C910548F5C0E2CD0F1D1718
:1032D000B9F080E2810F883040F4177081E001C0BE
:1032E000880F1A95EAF70E94DD04C83048F481E09F
:1032F0009D2F977001C0880F9A95EAF70E94D60417
:10330000802F0E94CD04C83070F6D77081E001C0D4
:10331000880FDA95EAF70E94DD04C5CF80E28C0FB2
:10332000883008F6C77081E001C0880FCA95EAF7B7
:10333000F2CF0F939C01CB01233F4CE5340759F1A9
:10334000A8F4283DFCE53F0701F1293D4CE5340791
:10335000D1F1273D3C4591F406E221EE41EE67EDC7
:103360007CE50E94351980E00F910895253FFCE52A
:103370003F07E9F0B0F0263F3C45F9F0FC018281BF
:10338000882339F110925102EFCF07E225EE45EE86
:1033900068ED7CE5E6CF06E221EE40EE63EF7CE5EA
:1033A000E0CF07E225EE44EE64EF7CE5DACF06E2FB
:1033B00021EE42EE65EF7CE5D4CF07E225EE46EE46
:1033C00066EF7CE5CECF08E221E045EE69ED7CE5D5
:1033D000C8CF81E0C9CF9093990180939801089557
:1033E00090935702809356020895E0915602F0910F
:1033F0005702309729F00190F081E02D099508954A
:1034000080E00895E0915602F0915702309799F0CC
:1034100020911601222359F020917F0227FF07C037
:10342000DC012C9111962C93119726E02C930280AD
:10343000F381E02D09950895E0915602F09157022D
:10344000309739F022E0DC012C930480F581E02DE7
:103450000995089520915402309155022817390793
:1034600071F09093550280935402E0915602F091CE
:103470005702309721F00680F781E02D09950895D5
:1034800020915202309153022817390771F090931E
:10349000530280935202E0915602F0915702309706
:1034A00021F00084F185E02D09950895FC01329604
:1034B00080911601882321F080917F029EE187FF91
:1034C00096E080E0915008F4089521912223D1F3F1
:1034D0008F5FF8CF662301F1209116012223F1F0CE
:1034E00020917F0227FF1AC0462F469546954695A4
:1034F0004E3190F4677021E030E002C0220F331F9C
:103500006A95E2F7840F911DFC01828190E02823E7
:10351000392381E0232B69F480E00895FC01329681
:1035200008962191261721F0E817F907D1F7F4CF73
:1035300081E008959C01FC0132969FEF80E041916B
:10354000461751F09F3F19F4411101C0982F8F5F2A
:103550008630A9F79F3F09F40895290F311D97FD83
:103560003A95F90162830895FC01329608962191FB
:10357000261303C0DF0111971C92E817F907B9F76A
:103580000895E62FE695E695E695EE3168F4E80FA6
:10359000F92FF11D677021E030E001C0220F6A951C
:1035A000EAF78281822B82830895E62FE695E695DD
:1035B000E695EE3170F4E80FF92FF11D677021E008
:1035C00030E001C0220F6A95EAF720958281282316
:1035D0002283089520911601222339F020917F0241
:1035E00027FF03C00E94C11A08950E949A1A0895E5
:1035F00020911601222339F020917F0227FF03C07A
:103600000E94D51A08950E94B41A0895FC013296BA
:1036100080911601882351F080917F0287FF06C0B8
:103620008EE1DF011D928A95E9F7089586E0F9CFD2
:1036300046E050E00E942F2421E0892B09F420E08D
:10364000822F089508950E94221B0895811106C0BB
:1036500081E0809358020E94231B089582E0F9CFF5
:1036600083E0809358020E94231B08950E94261B2A
:10367000089581E0809358020E94231B08950E94C0
:10368000391B0895089508950E94431B08950895D5
:1036900008950E94421B0895CF930E94471B0E94E9
:1036A000DB100E94481BC0E08C2F0E941210892B57
:1036B00031F4CF5FC330C1F780E0CF91089581E04E
:1036C000FCCF85B7806885BF85B7806885BF0895C2
:1036D0001F921FB61F9211248F939F93AF93BF9396
:1036E00080915902811113C080918D0290918E02B8
:1036F000A0918F02B09190024196A11DB11D8093BF
:103700008D0290938E02A0938F02B0939002BF918E
:10371000AF919F918F911F901FBE1F901895809120
:103720009502843031F10E9451031092590288E1D0
:1037300090E020E40FB6F894A895809360000FBE47
:103740002093600083B7817F846083BF83B78160EB
:1037500083BF7894889583B78E7F83BF0FB6F89424
:10376000A89580916000886180936000109260004D
:103770000FBE08950E942A070E945603089582E012
:1037800084BD93E095BD9AEF97BD80936E00089538
:103790002FB7F89480918D0290918E02A0918F02A4
:1037A000B09190022FBF08952FB7F89460918D02C9
:1037B00070918E0280918F02909190022FBF089598
:1037C0009C014FB7F89480918D0290918E02A09148
:1037D0008F02B09190024FBF821B930B0895789493
:1037E0001F921FB61F9211248F939F93AF93BF9385
:1037F00080918D0290918E02A0918F02B0919002E3
:103800000196A11DB11D80938D0290938E02A0930D
:103810008F02B0939002BF91AF919F918F911F90B3
:103820001FBE1F90189581E08093E00080E2809396
:10383000D8001092C9008FE19EE40197F1F700C013
:10384000000087E090EBDC0180939E0290939F0242
:10385000A093A002B093A10288E19CE00FB6F89477
:10386000A895809360000FBE90936000FFCF88E121
:103870009CE00FB6F894A895809360000FBE9093DB
:103880006000FFCF80917D02089508959C0184E03F
:103890008093E9009FEF8091E800915085FD06C07C
:1038A00085ED8A95F1F700009111F5CF8091E80040
:1038B00085FF0CC050E040E066E070E0C9010E9466
:1038C000ED1E8091E8008E778093E8000895CF93F5
:1038D000DF93EC01809116018823B1F180917F0282
:1038E00087FF32C060E284E08093E9008FEF90911F
:1038F000E800815095FD06C095ED9A95F1F700001E
:103900008111F5CF8091E80085FF1BC080911601E1
:1039100070E050E040E0811104C050E040E068E019
:1039200070E0CE010E94ED1E8091E8008E778093BA
:10393000E80080E2FE01ADE5B2E001900D928A95CB
:10394000E1F7DF91CF91089568E081E0CDCF8093DA
:103950005A0270935C0260935B02809195028430FE
:10396000F9F48093E9008FEF9091E800815095FD84
:1039700006C095ED9A95F1F700008111F5CF809181
:10398000E80085FF0DC050E040E063E070E08AE5AC
:1039900092E00E94ED1E8091E8008E778093E8000F
:1039A0000895BC0184E00E94A71C0895BC0183E037
:1039B0000E94A71C0895CF93FC01603221F58091ED
:1039C0009502843001F5C091E900CF702091EC00A0
:1039D000922F917020FD90E8C92B82E08093E9003E
:1039E0008091E80080FF0CC050E040E060E270E0B1
:1039F000CF010E94ED1E8091E8008E778093E80051
:103A0000CF70C093E900CF91089580919402811105
:103A100009C00E94CC200E9429218091E20084608C
:103A20008093E20008951092940208950E94391B39
:103A300008956091910281E0611101C080E00E94CF
:103A4000301B08959091950281E0943009F080E058
:103A5000609191020E94361B089542E061EC81E082
:103A60000E94482042E261EC84E00E94482042E249
:103A700061EC82E00E94482042E260EC83E00E9418
:103A800048209091950281E0943009F080E06091A7
:103A900091020E94261B089580919702833009F4B9
:103AA00063C030F48130E1F1823009F4A0C00895A0
:103AB0008A3009F48CC08B3009F471C0893009F068
:103AC00052C080919602813209F04DC080919A02D5
:103AD00090919B02009719F0029709F044C08091E1
:103AE000E800877F8093E8008091E80082FF37C07C
:103AF0009091F3008091F200029731F48091F100EF
:103B0000813011F0863021F48091F10080937D02A4
:103B10008091E8008B778093E8000E947C2023C08E
:103B200080919602813AF9F48091E800877F809332
:103B3000E80080919A0290919B02892B61F460E2E7
:103B40008DE592E070E00E948B1F8091E8008B77FA
:103B50008093E800089560E090E080E0F3CF8091EA
:103B600095028111C1CF089580919602813AD9F7CB
:103B700080919A0290919B02892BA9F78091E8008D
:103B8000877F8093E8008091E80080FFFCCF8091E0
:103B900016018093F1008091E8008E77BCCF809170
:103BA0009602813201F780919A0290919B02892BB3
:103BB000D1F68091E800877F8093E8000E947C2006
:103BC00080919802809316010E942A07089580919F
:103BD0009602813241F68091E800877F8093E80069
:103BE0000E947C208091990280937E0208958091AA
:103BF0009602813A09F0B7CF8091E800877F8093E1
:103C0000E8008091E80080FFFCCF80917E02C1CF68
:103C100084B7877F84BF0FB6F894A8958091600021
:103C2000886180936000109260000FBE80E890E091
:103C30000FB6F89480936100909361000FBE0E94CC
:103C40003F1B08950E94CC200E942921E2EEF0E063
:103C500080818460808378940E94A82308958AE0FC
:103C600091E00E94F019089580919502853031F419
:103C700080919502853019F00E94BA1B08950E9428
:103C80008F1B80919302882399F30E944C1B8823F9
:103C900079F30E94D71E0E942A07EACFA0E2B0E083
:103CA000E4E5FEE10C94F42380919502843009F55B
:103CB00083E08093E9008091E80082FF1AC0809140
:103CC000E80090E085FF09C050E040E060E270E06D
:103CD000CE0101960E943C1F91E08091E8008B7715
:103CE0008093E800992329F060E2CE0101960E94BA
:103CF0009914A096E2E00C9410240E94801E08956E
:103D0000292F33272330310521F168F42130310583
:103D100009F443C02230310509F444C090E080E04A
:103D200030E020E026C02132310551F12232310548
:103D3000A9F76330710590F7FB01EE0FFF1FE55700
:103D4000FE4F2081318168577E4FFB01808190E0DA
:103D500010C099278130910581F0009729F00297D2
:103D6000E9F6ECE7F2E002C0E2ECF2E0849190E0E8
:103D70009F01FA01318320830895EEEAF2E0F6CF45
:103D80006330710558F6660F771FFB01EF56FE4F43
:103D90002081318189E090E0ECCF82E190E021E266
:103DA00033E0E7CF8BE590E026EC32E0E2CF80E134
:103DB00089BD82E189BD09B400FEFDCF8091D800A4
:103DC0008F7D8093D8008091E00082608093E00036
:103DD0008091E00081FDFCCF0895AF92BF92CF9219
:103DE000DF92FF920F931F93CF93DF936C01EB0150
:103DF0008A010E949B20F82E811123C00115110514
:103E000039F0F80180819181C81BD90BC80ED91EE9
:103E1000B12CA12C2097A9F08091E80085FD22C04B
:103E20008091E8008E778093E80001151105A1F0DC
:103E3000F80180819181A80EB91EB182A08285E02F
:103E4000F82E8F2DDF91CF911F910F91FF90DF9072
:103E5000CF90BF90AF9008950E949B208823D1F20D
:103E6000F82EEFCFF60181916F018093F100219739
:103E7000FFEFAF1ABF0ACECFAF92BF92CF92DF92C1
:103E8000FF920F931F93CF93DF936C01EB018A0195
:103E90000E949B20F82E811123C00115110539F0D5
:103EA000F80180819181C81BD90BC80ED91EB12C95
:103EB000A12C2097A9F08091E80085FD22C0809177
:103EC000E8008B778093E80001151105A1F0F80157
:103ED00080819181A80EB91EB182A08285E0F82E62
:103EE0008F2DDF91CF911F910F91FF90DF90CF9099
:103EF000BF90AF9008950E949B208823D1F2F82EA6
:103F0000EFCF8091F100F60181936F012197FFEFD0
:103F1000AF1ABF0ACECFFC0180919C0290919D0206
:103F200086179707A0F06115710529F49091E800B4
:103F30009E779093E80090E06115710551F491111E
:103F400008C08091E80082FF34C080E00895BC0181
:103F5000F2CF809195028823C1F18530C1F1809123
:103F6000E80083FD30C08091E80082FDEACF8091B7
:103F7000E80080FFE1CF8091F3002091F200382F1C
:103F80006115710519F02830310558F091E028309D
:103F9000310509F090E02091E8002E772093E800A9
:103FA000CBCF81918093F100615071092F5F3F4F1A
:103FB000E7CF80919502882341F0853041F08091D0
:103FC000E80083FFBECF81E0089582E0089583E09A
:103FD0000895FC0180919C0290919D02861797079D
:103FE000A0F06115710529F48091E8008E77809327
:103FF000E80090E06115710551F4911108C08091BD
:10400000E80082FF35C080E00895BC01F2CF8091C6
:1040100095028823C9F18530C9F18091E80083FDBC
:1040200031C08091E80082FDEACF8091E80080FFF6
:10403000E1CF8091F3002091F200382F61157105D6
:1040400019F02830310558F091E02830310509F099
:1040500090E08091E8008E778093E800CBCF849148
:104060008093F1003196615071092F5F3F4FE6CF89
:1040700080919502882341F0853041F08091E800DD
:1040800083FFBDCF81E0089582E0089583E0089525
:10409000982F973028F08F708093E90081E0089581
:1040A0009093E900242F762F50E0981731F070910B
:1040B000EC002091ED005091F00021FD02C09F5FC7
:1040C000E8CF3091EB003E7F3093EB003091ED0074
:1040D0003D7F3093ED003091EB0031603093EB0089
:1040E0007093EC002093ED005093F0002091EE00CF
:1040F00027FDE5CF80E008958091960287FF13C0E9
:104100008091E80082FF06C08091E8008B77809361
:10411000E80004C0809195028111F2CF089580914A
:1041200095028823D9F38091E80080FFF8CF809131
:10413000E8008E77ECCF2091E4003091E50095E621
:10414000A9012091EC00822F817020FF06C0809190
:10415000E80080FF06C080E008952091E80022FD7D
:104160001AC080919502882389F0853089F080916A
:10417000EB0085FD0FC02091E4003091E50042176F
:104180005307F9F29150E1F684E0089582E0089532
:1041900083E0089581E008950E943B210E9443211D
:1041A000E0EEF0E0808181608083E8EDF0E08081E6
:1041B0008F77808319BCA7EDB0E08C918E7F8C93B4
:1041C00080818F7E80831092940208950F931F93B5
:1041D000CF93DF930E943B210E944321C8EDD0E0A2
:1041E00088818F77888388818068888388818F7DA4
:1041F000888319BC1092950210929102109293023A
:104200001092920200EE10E0F80180818B7F808393
:1042100088818160888342E060E080E00E944820DD
:10422000E1EEF0E080818E7F8083E2EEF0E080813D
:1042300081608083808188608083F80180818E7FA7
:104240008083888180618883DF91CF911F910F9156
:104250000895E8EDF0E080818F7E8083E7EDF0E067
:1042600080818160808384E082BF81E080939402BA
:104270000E94E6200895E8EDF0E080818E7F808343
:104280001092E20008951092DA001092E100089571
:104290001F920F920FB60F9211242F933F934F93BB
:1042A0005F936F937F938F939F93AF93BF93EF939E
:1042B000FF938091E10082FF0BC08091E20082FFBA
:1042C00007C08091E1008B7F8093E1000E94A723CB
:1042D0008091DA0080FF19C08091D80080FF15C05E
:1042E0008091DA008E7F8093DA008091D90080FF80
:1042F00096C080E189BD82E189BD09B400FEFDCF91
:1043000081E0809395020E94051D8091E10080FF6D
:1043100019C08091E20080FF15C08091E2008E7F7D
:104320008093E2008091E20080618093E2008091BE
:10433000D80080628093D80019BC85E080939502F4
:104340000E94191D8091E10084FF2BC08091E20042
:1043500084FF27C080E189BD82E189BD89B5982F9E
:10436000917080FFFBCF8091D8008F7D8093D80023
:104370008091E1008F7E8093E1008091E2008F7E4A
:104380008093E2008091E20081608093E20080915E
:104390009102882309F449C084E0809395020E9429
:1043A000221D8091E10083FF29C08091E20083FFFC
:1043B00025C08091E100877F8093E10082E08093B7
:1043C0009502109291028091E1008E7F8093E1002E
:1043D0008091E2008E7F8093E2008091E200806114
:1043E0008093E20042E060E080E00E9448208091FB
:1043F000F00088608093F0000E94161DFF91EF91FD
:10440000BF91AF919F918F917F916F915F914F91EC
:104410003F912F910F900FBE0F901F90189519BCD0
:10442000109295020E94131D70CF8091E30087FDCA
:1044300093E090939502B3CF1F920F920FB60F9215
:1044400011242F933F934F935F936F937F938F9399
:104450009F93AF93BF93CF93DF93EF93FF93D0914D
:10446000E900DF708091EC00C82FC17080FDC0E8CA
:104470001092E9008091F000877F8093F00078949B
:104480000E9460221092E9008091F0008860809381
:10449000F000CD2BCF70C093E900FF91EF91DF9139
:1044A000CF91BF91AF919F918F917F916F915F91CC
:1044B0004F913F912F910F900FBE0F901F90189525
:1044C000AAE2B0E0E6E6F2E20C94F32386E992E099
:1044D0002091F100FC012193CF01F2E08E399F077A
:1044E000B9F70E944C1D8091E80083FF1EC18091A6
:1044F0009602909197029A3008F017C1E92FF0E0E8
:10450000E855FB4D0C94D723803899F0823809F098
:104510000CC180919A028F70873008F006C1809399
:10452000E9008091EB0085FB882780F91092E90073
:1045300006C08091920290919302911182609091B5
:10454000E800977F9093E8008093F1001092F100CB
:104550008091E8008E77E5C0882309F4D3C08230CB
:1045600009F0E3C0809198028111D6C080919A022F
:104570008F702FEF280F263008F0D7C08093E90006
:104580002091EB0020FFC8C0933031F48091EB0004
:1045900080628093EB00C0C09091EB00906190939B
:1045A000EB0021E030E001C0220F8A95EAF720936A
:1045B000EA001092EA008091EB008860EACF811156
:1045C000B4C0109198021F778091E3008078812B0E
:1045D0008093E3008091E800877F8093E8000E9449
:1045E0007C208091E80080FFFCCF8091E300806810
:1045F0008093E30082E0111183E08093950295C0DF
:104600008058823008F091C0809198029091990270
:104610008C3D23E09207A1F583E08A838AE28983B7
:104620004FB7F894DE01139620E03EE051E2E32F0D
:10463000F0E050935700E49120FF03C0E295EF7043
:104640003F5FEF708E2F90E0EA30C0F0C7968D93F9
:104650009D932F5F243159F74FBF8091E800877FEA
:104660008093E8006AE270E0CE0101960E948B1F01
:104670008091E8008B778093E80057C0C096E7CF21
:1046800060919A0270919B02AE014F5F5F4F0E9452
:104690007D1EBC01892B09F448C09091E800977FEA
:1046A0009093E80089819A810E94E91FE1CF8038C8
:1046B000E1F58091E800877F8093E8008091910286
:1046C0008093F10045CF811130C0909198029230D3
:1046D00060F58091E800877F8093E80090939102D5
:1046E0000E947C2080919102882311F084E005C013
:1046F0008091E30087FDFACF81E0809395020E94CC
:104700002D1D13C080919802813079F481E093309F
:1047100009F080E0809393021092E9008091E80014
:10472000877F8093E8000E947C208091E80083FFCF
:104730000AC08091E800877F8093E8008091EB00B9
:1047400080628093EB00AA96E3E00C940F24089516
:10475000CF93809195028823A1F0C091E900CF709A
:104760009091EC00892F817090FD80E8C82B109209
:10477000E9008091E80083FD0E946022CF70C09321
:10478000E900CF91089597FB072E16F4009407D007
:1047900077FD09D00E941B2407FC05D03EF49095BC
:1047A00081959F4F0895709561957F4F0895EE0F05
:1047B000FF1F0590F491E02D09946927962769273A
:1047C00078278727782708952F923F924F925F92FC
:1047D0006F927F928F929F92AF92BF92CF92DF9211
:1047E000EF92FF920F931F93CF93DF93CDB7DEB776
:1047F000CA1BDB0B0FB6F894DEBF0FBECDBF09940A
:104800002A88398848885F846E847D848C849B8460
:10481000AA84B984C884DF80EE80FD800C811B816E
:10482000AA81B981CE0FD11D0FB6F894DEBF0FBE9D
:10483000CDBFED010895AA1BBB1B51E107C0AA1F04
:10484000BB1FA617B70710F0A61BB70B881F991F31
:104850005A95A9F780959095BC01CD010895FB016B
:10486000DC0104C08D910190801921F44150504029
:10487000C8F7881B990B0895FB01DC0102C0019069
:104880000D9241505040D8F70895F999FECF92BD4E
:1048900081BDF89A992780B50895A8E1B0E042E07B
:1048A00050E00C947924262FF999FECF92BD81BD5A
:1048B000F89A019700B4021639F01FBA20BD0FB65E
:1048C000F894FA9AF99A0FBE08950396272F0E943A
:1048D00054240E945324252F0E945424242F0C94E6
:1048E00054240196272F0E9454240C945324DC0155
:1048F000CB01FC01F999FECF06C0F2BDE1BDF89AEB
:10490000319600B40D9241505040B8F70895F89494
:10491000FFCF1F051F0550055005DD05F9057F0573
:104920007F0504066B067A067A06AB14B714DE140C
:10493000EA14F514001503150315031503150315E3
:1049400006150A1512151F152C152F1532153F15B2
:104950008422AC229523AC229523DF2200239523C9
:044960005723632353
:104964000B02280850011E0A1401421C671C461C35
:10497400D61CD11C451C01E200E900EA00B500B6D2
:1049840000B700CD008301CC008A0192019401217B
:1049940002230224022502260227022A02B300B4BB
:1049A400006F007000818283E200E900EA00B50034
:1049B400B600B700CD008301CC008A0192019401B6
:1049C4002102230224022502260227022A02B3001E
:1049D400B4006F007000818283F4F5F6F73133324E
:1049E400363534C6979190944022B60B0433035560
:0849F40003D802F102110300D7
:00000001FF
