:100000000C948F050C94AC050C94AC050C94AC05C9
:100010000C94AC050C94AC050C94AC050C94AC059C
:100020000C94AC050C94AC050C9480290C94542AC7
:100030000C9406230C94AC050C94AC050C94AC0504
:100040000C94AC050C94AC050C94AC050C94AC056C
:100050000C94AC050C948D230C94AC050C94AC055D
:100060000C94AC050C94AC050C94AC050C94AC054C
:100070000C94AC050C94AC050C94AC050C94AC053C
:100080000C94AC050C94AC050C94AC050C94AC052C
:100090000C94AC050C94AC050C94AC050C94AC051C
:1000A0000C94AC050C94AC050C94AC052900140020
:1000B0001A000800150017001C0018000C001200A0
:1000C00013002A00E00004001600070009000A00DF
:1000D0000B000D000E000F00280000000000E100E2
:1000E0001D641B68060019420543114110002C00D5
:1000F0002C00000001001E001F0020002100220033
:10010000230024002500260027004C0001002F00BA
:100110003000380031002D002E003300340035004F
:1001200001000000000001000100010001000100C9
:1001300001000100360037003700000001001E02F8
:100140001F0220022102220223022402250226028B
:100150002702010001002F023002380231020100A3
:100160002D022E02330234020100000000000100C3
:100170003602370201000100010001000100010008
:100180000100000001003A003B003C003D003E0041
:100190003F004000410042004300005C2B00A900EA
:1001A000AA00A8004A004D005000510052004F0024
:1001B0000100000000000100E200E3004600010031
:1001C000010001000100010001000000444542550A
:1001D000473A2064697361626C65642E0A00444585
:1001E0004255473A20656E61626C65642E0A000ACA
:1001F0000025303258006C65645F7461736B3A207F
:10020000004F6E6573686F743A2061637469766538
:100210003A2025640A000A002530313662003A206F
:100220000025303258000A722F63203031323334C7
:1002300035363738394142434445460A00290A00D9
:100240002575002F002575005D280025640020001D
:10025000256400200025640020002564007C002522
:10026000303258006D6F7573656B6579205B627411
:100270006E7C782079207620685D287265702F6109
:10028000636C293A205B0000000000000000002A97
:100290002B2800000000000000000000000000000B
:1002A000000029000000002C1E34202122243426C6
:1002B00027252E362D3738271E1F202122232425BF
:1002C000263333362E37381F0405060708090A0B74
:1002D0000C0D0E0F101112131415161718191A1BE6
:1002E0001C1D2F3130232D350405060708090A0B84
:1002F0000C0D0E0F101112131415161718191A1BC6
:100300001C1D2F3130354C000000000000000000A3
:1003100000000000000000000000000000000000DD
:1003200000000000000000000000007E0F00D4FF6D
:10033000FFFFC700000078313A0964656C617928D5
:100340002A31306D73293A2025750A323A09696ECF
:1003500074657276616C286D73293A2025750A33AD
:100360003A096D61785F73706565643A2025750A96
:10037000343A0974696D655F746F5F6D61783A2016
:1003800025750A353A09776865656C5F6D61785F38
:1003900073706565643A2025750A363A0977686591
:1003A000656C5F74696D655F746F5F6D61783A202D
:1003B00025750A00703A097072696E742076616C56
:1003C0007565730A643A09736574206465666175BE
:1003D0006C74730A75703A092B310A646E3A092DF0
:1003E000310A6C743A092B31300A72743A092D3192
:1003F000300A4553432F713A09717569740A0A73BB
:1004000070656564203D2064656C7461202A206DF0
:1004100061785F7370656564202A20287265706555
:100420006174202F2074696D655F746F5F6D6178F2
:10043000290A77686572652064656C74613A206387
:100440007572736F723D25642C20776865656C3D0D
:1004500025640A53656520687474703A2F2F656EA1
:100460002E77696B6970656469612E6F72672F778B
:10047000696B692F4D6F7573655F6B6579730A00E2
:100480004D3E20004D25753A25733E20003F0A0061
:100490003D2025750A003F0A0064656661756C742D
:1004A000730A0025750A003F0A000A092D205661CB
:1004B0006C756573202D0A00710A000A092D204D04
:1004C0006F7573656B6579202D0A003F00433E20F0
:1004D000004C25640A000A092D2053746174757359
:1004E000202D0A686F73745F6B6579626F61726447
:1004F0005F6C65647328293A20253032580A6B6591
:1005000079626F6172645F70726F746F636F6C3A5F
:1005100020253032580A6B6579626F6172645F69B9
:10052000646C653A20253032580A74696D65725FD3
:1005300072656164333228293A202530386C580AB4
:10054000002573000A092D20436F6E736F6C6520C0
:100550002D0A4553432F713A09717569740A6D3A32
:10056000096D6F7573656B65790A000A092D204D59
:1005700061676963202D0A443A0944656275672002
:100580004D65737361676520546F67676C650A58C2
:100590003A094D6174726978204465627567204D2F
:1005A0006F646520546F67676C65202D2053686FFA
:1005B00077206B65797072657373657320696E203F
:1005C0006D617472697820677269640A4B3A094BED
:1005D0006579626F61726420446562756720546F4B
:1005E00067676C65202D2053686F77206B65797085
:1005F00072657373207265706F72740A4D3A0944A4
:1006000065627567204D6F75736520546F67676C01
:10061000650A563A0956657273696F6E0A533A094C
:100620005374617475730A433A094163746976615E
:10063000746520436F6E736F6C65204D6F64650A3F
:1006400046312D4631303A09537769746368207416
:100650006F204C6179657220302D39202846313069
:10066000203D204C30290A302D393A0953776974DE
:10067000636820746F204C6179657220302D390ACF
:1006800047524156453A0953776974636820746F3D
:10069000204C6179657220302028616C7465726E1F
:1006A000617465290A423A094A756D7020746F2099
:1006B000426F6F746C6F616465720A4553433A0907
:1006C0004A756D7020746F20426F6F746C6F616437
:1006D00065722028616C7465726E617465290A45C3
:1006E0003A095072696E7420454550524F4D20535F
:1006F000657474696E67730A4241434B53504143BA
:10070000453A09436C65617220454550524F4D0A88
:10071000006B65796D61705F636F6E6669672E72DD
:1007200061773A20253032580A2E737761705F6303
:100730006F6E74726F6C5F636170736C6F636B3A32
:100740002025750A2E636170736C6F636B5F746F25
:100750005F636F6E74726F6C3A2025750A2E737723
:1007600061705F6C63746C5F6C6775693A202575A6
:100770000A2E737761705F7263746C5F726775695C
:100780003A2025750A2E737761705F6C616C745F17
:100790006C6775693A2025750A2E737761705F72F0
:1007A000616C745F726775693A2025750A2E6E6FE9
:1007B0005F6775693A2025750A2E737761705F67E8
:1007C000726176655F6573633A2025750A2E7377CB
:1007D00061705F6261636B736C6173685F626163B8
:1007E0006B73706163653A2025750A2E6E6B726FAC
:1007F0003A2025750A2E737761705F6573636170A7
:10080000655F636170736C6F636B3A2025750A00D6
:1008100064656275675F636F6E6669672E72617784
:100820003A20253032580A2E656E61626C653A2096
:1008300025750A2E6D61747269783A2025750A2E25
:100840006B6579626F6172643A2025750A2E6D6F4F
:100850007573653A2025750A006565636F6E666974
:10086000673A0A64656661756C745F6C617965727C
:100870003A2025750A003F000A6D6F7573653A20AE
:100880006F66660A000A6D6F7573653A206F6E0AAF
:10089000000A6B6579626F6172643A206F66660A5E
:1008A000000A6B6579626F6172643A206F6E0A00AC
:1008B0000A6D61747269783A206F66660A000A6D83
:1008C00061747269783A206F6E0A000A6465627515
:1008D000673A206F66660A000A64656275673A20A7
:1008E0006F6E0A000A0A4A756D70696E6720746F30
:1008F00020626F6F746C6F616465722E2E2E200003
:10090000433E2000436C656172696E672045455027
:10091000524F4D0A000A002530325820006B65798D
:10092000626F6172645F7265706F72743A20005B0F
:10093000735D005B575D005B535D005B525D005B68
:10094000445D005B435D0030035400450053005498
:100950000041004D00410054005400410020004B74
:10096000004500590042004F00520044002000237F
:10097000003000300031000000120368006900649C
:100980000065002D006B006500790000000403097C
:100990000409027B00040100A0FA0904000001031D
:1009A0000101000921110100012240000705810316
:1009B00008000109040100020300000009211101DF
:1009C000000122220007058203200001070503031E
:1009D00020000109040200010300000009211101A7
:1009E0000001227B000705840320000109040300A5
:1009F0000203000000092111010001222200070565
:100A000085032000010705050320000112010002F3
:100A1000000000088C1D01000100010200010631E8
:100A2000FF0974A1010975150026FF0095207508BE
:100A300081020976150026FF00952075089102C0F5
:100A40000660FF0961A1010962150026FF009520DB
:100A5000750881020963150026FF0095207508912D
:100A600002C005010902A10185020901A1000509D1
:100A70001901290815002501950875018102050154
:100A8000093009311581257F9502750881060938DD
:100A90001581257F950175088106050C0A38021518
:100AA00081257F950175088106C0C005010980A1D7
:100AB00001850319012AB700150126B700950175B4
:100AC000108100C0050C0901A101850419012AA0AB
:100AD00002150126A002950175108100C0050109CB
:100AE00006A101050719E029E715002501950875FC
:100AF0000181029501750881010507190029FF157B
:100B00000026FF00950675088100050819012905D2
:100B1000950575019102950175039101C00011249D
:100B20001FBECFEFDAE0DEBFCDBF12E0A0E0B1E044
:100B3000EAEEF9E502C005900D92A83CB107D9F79D
:100B400023E0A8ECB2E001C01D92AF38B207E1F794
:100B50000E94A9150C94CA2C0C940000FF93EF93EB
:100B6000E091C802F091C902309709F00995EF9120
:100B7000FF910895FC018591803011F0EFDFFBCFEC
:100B80000895FF27E0E230E247FF0CC0419597FF50
:100B900009C0EDE26095709580959095611D711D7D
:100BA000811D911D27FF02C0219530E350E2AA2745
:100BB000660F771F881F991FAA1FA41710F0A41B88
:100BC00063955A95A9F7AA3008F0A95FA05DAF9385
:100BD000F395611571058105910541F7ED3211F429
:100BE000EF93F395F21718F43F93F395FBCF8F91A2
:100BF000B5DFFA95E1F70895E991F9918591803093
:100C000021F0853219F0AADFF9CF089520E0E894A9
:100C100055915532C1F3503311F4689455915A33BC
:100C200048F4505390F3220F022E220F220F200D72
:100C3000250FF4CF0EF4219589919991533619F32C
:100C4000533729F1533559F1BC0188279927E89486
:100C50005C3621F48991999168945591543639F410
:100C600046EF7EF077FF0DC08FEF9FEF0AC055373C
:100C70004AE039F0583540E121F0523642E009F0BF
:100C80000895FF93EF937DDFEF91FF91B7CFFF932F
:100C9000EF93FC0181918030B9F360DFFBCFFF93CC
:100CA000EF9368DFF1CFDF93CF93CDB7DEB7259613
:100CB000A3DFCF91DF91089584E0089581E0089546
:100CC00081E008950E946006089508950E946506D7
:100CD0000895A5E0B0E0EFE6F6E00C94362C4983E9
:100CE0005A833091CF0289819A81311119C06623CC
:100CF00099F0222389F00E944D0C182F682F8981CA
:100D00009A810E94290C69817A81812F0E94342066
:100D10002596E3E00C94522C0E943B0C182FF3CF45
:100D20000E944D0C69817A81F1CFFC01262F408110
:100D300051816281738184810E946906089581E0F6
:100D40000895CF93DF93EC0160E00E949506BE0109
:100D50000E946606DF91CF910895E1E0F0E0DF01A7
:100D600002C0AA0FBB1F6A95E2F7BD01DF0102C0F6
:100D7000AA0FBB1F4A95E2F76A2B01C0EE0F2A9516
:100D8000EAF7962F9823961302C08E2B0895E095CC
:100D90008E230895242F462F682F8091DF020E9412
:100DA000AD060E94890B08950E940D1408950E94BB
:100DB0001114089508950E941B0B0E94DA062FEF6C
:100DC00084E39CE0215080409040E1F700C00000A7
:100DD00008950E94DB060E94B12308950E94DB065D
:100DE0000E94C22308950F931F93CF93DF938C012A
:100DF00061E00E949506EC01B8010E942119811161
:100E000006C080E0DF91CF911F910F910895B80146
:100E1000CE010E9462068823A1F3B801CE010E9490
:100E20007A21882371F3B801CE010E94101A882319
:100E300041F3B801CE010E94EC20882311F3F801A0
:100E400082818823D9F0CA35FDE5DF07A9F170F466
:100E5000C130ECE5DE07B1F0CE3DFCE5DF0721F166
:100E6000C115DC4559F40E94E906CBCFCC35EDE540
:100E7000DE07F9F020F1C73ADD45C1F0C8010E9454
:100E80005E06C0CF90913D03892F8E7F90FF8160D9
:100E900080933D0380FF05C08EED91E00E94BA056E
:100EA000B0CF8CEC91E0FACF0E9419110E94EE06AF
:100EB000A8CF0E945310E2CF0E945D10DFCF0E94A6
:100EC0006110DCCF0E94E2220E94A40708950E94D4
:100ED000A8070E94E7220895829590E09C01220FC6
:100EE000331F220F331F2C7C9595879595958795F9
:100EF0008373282B30E0C901880F991F8A7A3595B2
:100F000027952575822B0895CF93DF93D92F0E94C3
:100F10006C07C82F8D2F0E946C079C2FDF91CF91FB
:100F2000089508950E949107089581E008950E9410
:100F3000950708950895CF93C82F0E9492078C2F8C
:100F40000E949707CF91089580E00E949B07089523
:100F50000E94D6210E949B070895CF930E94D6211C
:100F6000C82F8091CA028C1789F1C093CA020E94CF
:100F700072236093CB027093CC028093CD02909346
:100F8000CE0280913D0382FF1EC080FF1CC086EF11
:100F900091E00E94BA0580913D0380FF14C01F922A
:100FA000CF9381EF91E09F938F930E94530680919E
:100FB0003D030F900F900F900F9080FF04C08FEEB5
:100FC00091E00E94BA058C2F0E949B07CF91089553
:100FD000ABE0B0E0EEEEF7E00C94372C4F8358878F
:100FE00069877A878B8761110E948B0F1E821D8211
:100FF00085E0FE013796DE01119601900D928A95EB
:10100000E1F78C819D81892B61F449815A816B8143
:101010007C818D819E810E94B40E2B96E2E00C941F
:10102000532C89819A8189238F3F79F3CE010196D0
:101030000E949F068111E9CFF0CFFC018081918150
:101040000E947A0C0895CF93C82F8823E1F08CEF8B
:101050008C0F813AD0F48C2F0E940A1F811113C08B
:101060006C2F80910001909101010E9473228823CE
:1010700029F08C2F0E944B0F0E94AC0F8C2F0E94E6
:10108000430F0E94AC0FCF91089580E28C0F8830FF
:1010900048F4C77081E001C0880FCA95EAF70E9442
:1010A0006E0FEFCFEBE5EC0FE33040F4F0E0EB5BDD
:1010B000FE4F808190E00E943522E5CFE8E5EC0FFD
:1010C000E73150F4F0E0EE0FFF1FE95EFE4F808144
:1010D00091810E944B22D7CFC03FA8F28C2F0E9453
:1010E0002D160E940017CFCF882379F19CEF980F1F
:1010F000913A28F40E944B0F0E94AC0F089590E2A1
:10110000980F983050F4877091E001C0990F8A953C
:10111000EAF7892F0E94740FEFCF9BE5980F933069
:1011200028F490E080E00E943522089598E5980F19
:10113000973128F490E080E00E944B220895803F90
:1011400020F00E9487160E94001708951F93CF93E6
:10115000DF93182FEB010E942308209739F4812F89
:101160000E947408DF91CF911F9108958FE99FE04D
:101170000197F1F700C000002197EFCF70E060E029
:10118000893311F460E570E00E94A6080895882371
:1011900021F00E946E0F0E94AC0F0895882321F069
:1011A0000E94740F0E94AC0F0895B0E0A0E0EBED38
:1011B000F8E00C94302C6C01D62FC72FFC01128163
:1011C000F580F2949FE0F9220E94640FE82E8823B4
:1011D000B9F0E12E1123A1F08C2F807F803421F013
:1011E00080E28D0F8830D0F08091710382FF16C0AD
:1011F00082E00E940F100E94640F91E0E82EE92621
:10120000BC2EB2948FE0B822FBE0FB1508F468C056
:10121000EB2DF0E0E453F34D0C941A2CE12CF0CFBD
:101220000C2F0F70C07F11F00295007F112399F0F1
:10123000002359F080E28D0F883010F0D11107C0E3
:10124000802F0E946E0F0E94AC0F8D2F41C0802F07
:101250000E947E0FF8CF8D2F0E947408002309F49E
:101260003FC080E28D0F883010F0D11104C0802F74
:101270000E94740F03C0802F0E94840F0E94AC0F45
:101280002FC00C2F0F70C07FC03211F00295007F6D
:10129000DD2381F0D13009F463C0112309F46DC05E
:1012A000FF2009F463C0F601858180FFCECF8F70E7
:1012B00085835CC08091710382FD33C0112359F096
:1012C000002329F0802F0E946E0F0E94AC0F80E057
:1012D0000E94230805C080E00E9474080111C7CF56
:1012E000EB2DE850FF0B349720F40E94D6210E948A
:1012F0009B07EE2089F00E94600F80FD0DC0F60173
:1013000012820E945A0F0E949D0BC6010E94DB0AA6
:101310000E945A0F0E94A90BCDB7DEB7E9E00C94EA
:101320004C2C112389F0F11006C00E948E0F802BE7
:101330000E94C708D5CF21E0F212F7CF0E948E0F8E
:10134000802B0E94950FCCCFF11006C00E94A20FF7
:10135000802F0E94CE08C4CF31E0F31609F2F6CFF9
:10136000112331F085E08F1508F4BACF802FE0CF3C
:1013700094E09F1508F4B4CFEBCFFF2049F3D933A5
:1013800049F4FFEF27EE33E0F15020403040E1F721
:1013900000C000008D2F0E947408A2CF8C2F86956C
:1013A0008695837069F0813009F09ACF8D2F9C2F3C
:1013B0009370111102C090E080E00E944B2290CF08
:1013C0008D2F9C2F9370111102C090E080E00E943D
:1013D000352286CF8D2F112329F00E942D160E94D1
:1013E00000177ECF0E948716FACF8C2F837079F575
:1013F000111176CF4D2F429546954770440F440FFB
:101400008D2F8F70042E01C0880F0A94EAF72D2FBC
:101410002071D4FF07C02FE030E001C0220F4A95B1
:10142000EAF72095C695C695C370822BC23049F065
:1014300058F4C13019F00E94770B52CF0E94710B03
:101440004FCF0E947D0B4CCF0E946E0B49CF8695EB
:10145000112311F08C2F8170882309F441CF4D2F77
:10146000429546954770440F440F8D2F8F70042E80
:1014700001C0880F0A94EAF72D2F2071D4FF07C00E
:101480002FE030E001C0220F4A95EAF72095C6957B
:10149000C695C370822BC23049F058F4C13019F0A0
:1014A0000E94C80B1DCF0E94C20B1ACF0E94CE0B08
:1014B00017CF0E94890B14CFCF70112329F08C2FE6
:1014C0000E949D0B8D2F34CF8D2F0E94CE088C2F24
:1014D0000E94A90B05CFD23F51F160F4D03FB9F083
:1014E000D13F81F0112309F449C0F110AECE8C2F09
:1014F0008F7121C0D33F11F1D43FA1F780917103C7
:1015000082FD26C08C2F8F71112311F314C011237B
:1015100049F084E08F1508F4E3CE8C2F8F710E9480
:10152000B60BDECE95E09F1508F4DACEF6CF8C2F01
:101530008F711111CDCF0E949D0BD2CE112329F0B6
:101540008C2F8F710E94940BCBCE0E94900BC8CE33
:10155000112349F0CF718C2F0E949D0B63E08C2FDB
:101560000E94F10FBDCE81E00E940F10E1E0EF1567
:1015700008F0B6CE82E00E940F10B2CEF110FFCE7E
:101580008C2F8F71A5CF0F931F93CF93DF93EC0117
:10159000688179818A810E94850C8C010E94D40B1C
:1015A0000E946D0BB801CE010E94D508DF91CF914A
:1015B0001F910F910895CF93DF93EC018B819C8154
:1015C000892B29F08881998189238F3F51F4DF91FC
:1015D000CF910895CE010E94C30ACE010E94A106B8
:1015E000F6CFCE010E94F3068111F4CF0E94640F62
:1015F000882369F38A81882351F38091710382FFE4
:10160000E6CF82E00E940F10E2CF90E080E00E94DF
:10161000352290E080E00E944B220E948B0F0E94B6
:10162000AC0F0E949E170E94001708950E94530F4E
:101630000E94050B08950E947B0F0E94160B0895CF
:1016400092959F70963091F058F4925F9F7092300F
:1016500058F4803F19F030F4883E30F481E008956A
:101660009A5FF4CF843FD1F380E00895883EB0F3D1
:10167000813FD1F7F3CFFC0183819481892B29F03D
:101680008081918189238F3F11F480E008958081CA
:1016900091810E947A0C0E94200B0895A5E0B0E091
:1016A000E4E5FBE00C94372C2596E2E00C94532CF7
:1016B000A6E0B0E0EEE5FBE00C94372C2696E2E0E5
:1016C0000C94532C08950E94620B08950E94630BA2
:1016D0008093E0020E94050B089508950E94660B16
:1016E00008959091E002892B0E94660B08959091D5
:1016F000E00289230E94660B08959091E0028927F9
:101700000E94660B08950E94620B08950E94830B4D
:1017100008950E94860B8093DF020E94050B0895B6
:1017200080E00E94890B089591E001C0990F8A958D
:10173000EAF7892F0E94890B089521E030E001C06B
:10174000220F8A95EAF78091DF02822B0E94890B93
:10175000089521E030E001C0220F8A95EAF7209534
:101760008091DF0282230E94890B089521E030E0FE
:1017700001C0220F8A95EAF78091DF0282270E943A
:10178000890B08959091DF02892B0E94890B08959F
:101790009091DF0289230E94890B08959091DF02C6
:1017A00089270E94890B08950895262F277091E0BC
:1017B00001C0990F2A95EAF723E0769567952A9557
:1017C000E1F7FB01EE0FFF1FE60FF71FE40FF51F18
:1017D00050E040E0682F70E08191DF0111979B019C
:1017E000042E02C0369527950A94E2F721702195C0
:1017F0002827292328272C934F5F5F4F433051051B
:1018000059F70895A82FA77023E0969587952A95F4
:10181000E1F7FC01EE0FFF1FE80FF91FE60FF71FBE
:1018200050E040E080E0219130E00A2E02C0369581
:1018300027950A94E2F721703327042E01C0220F66
:101840000A94EAF7822B4F5F5F4F4330510559F7F7
:101850000895262F933070F48C3060F4682F70E078
:101860008CE0989F600D711D112440ED52E0822F95
:101870000E94D50B0895292F933068F48C3058F4CA
:1018800090E060ED72E03CE0239F800D911D1124FB
:101890000E94020C089580E00895CF92DF92FF929B
:1018A0000F931F93CF93DF936C010091DF02809120
:1018B000E002082BC7E0D0E010E0FC2EC8010C2E9F
:1018C00002C0959587950A94E2F780FD0CC0219798
:1018D000A0F7F12C8F2DDF91CF911F910F91FF90E9
:1018E000DF90CF900895B6018C2F0E94EA120197E5
:1018F00071F3F0CFCF93DF93EC010E944D0CBE014A
:101900000E94EA12DF91CF9108951F93CF93DF9346
:10191000EB019091CF02992339F0CB010E947A0C10
:10192000DF91CF911F910895882369F0CB010E9428
:101930004D0C182F682FCE010E94290CBE01812F5B
:101940000E94EA12EDCFCB010E943B0C182FF6CF7C
:101950001F93CF93DF93C091E10216E08091E202E2
:101960008C1304C0DF91CF911F910895D0E01C9F8C
:10197000F0011D9FF00D1124ED51FD4F408151816B
:1019800062817381848195810E94580B2196C77072
:10199000E5CF4091130350911403609115037091AA
:1019A000160380911703909118030E94580B089515
:1019B0001F93CF93DF9380911803807F09F049C074
:1019C00080911503882309F444C08091E102C091FD
:1019D000E2026091130370911403A0911603B09179
:1019E0001703D62FD72316E0C81799F190E0109768
:1019F00011F0DF3F19F401968770F6CF189F900120
:101A0000199F300D1124F901ED51FD4F418147130C
:101A1000F2CF40814613EFCF42814111ECCF438199
:101A200054814A1B5B0B483C510528F780911803F1
:101A30008F70806180931803F901E851FD4F808118
:101A40008F708061808383E193E00E94DB0A0E94B3
:101A5000A80CDF91CF911F910895A1E1B0E0E3E3DD
:101A6000FDE00C942F2C8C0185E0F801DE011D9621
:101A700001900D928A95E1F7F801E28083E1C82E8A
:101A800083E0D82E609116037091170361157105DC
:101A900009F44EC19091130320911403892F8223DE
:101AA0008F3F09F445C140815181A380B480F090FB
:101AB0001503F501E61BF70BFF2009F4EAC080913E
:101AC0001803382F307FE83CF10508F0A3C031112E
:101AD0006DC0FE2C251316C0941314C0E11012C063
:101AE0008F708061809318030E94C90CC6010E9408
:101AF000DB0A80911803F80185838F2D6196EAE057
:101B00000C944B2CA114B10429F0842F85238F3F12
:101B100009F027C180E0F82FF170DF2E80FF3CC074
:101B20008091E1022091E20236E0821315C04D87D8
:101B30005E878D859E850E947A0C292F22952F70B5
:101B40002230F0F0243018F59F70F1F0F801958103
:101B5000907FD1F4D12C1EC090E0389FF001399FC6
:101B6000F00D1124ED51FD4F6181651306C06081B8
:101B7000641303C06281E6120FC001968770D5CF4F
:101B80009F7011F0882331F3805E883018F3C8010C
:101B90000E94DB0AFD2CB1CFEE2009F4AECF80917C
:101BA0001803816080931803F12CA7CF251306C07A
:101BB000941304C0F801EE2009F487C0C8010E9404
:101BC0003B0B882319F1EE2009F180911803803234
:101BD00070F0209113033091140338872F831986F6
:101BE000BB86AA868C87CE0107960E94DB0A86E018
:101BF000F801A3E1B3E001900D928A95E1F70E940C
:101C0000D80C0E94C90CFF24F39477CFC8010E941E
:101C1000DB0AF9CF311113C07A2DB98AA88A6E2D4B
:101C200089890E944E0B83E193E00E94DB0A86E0E3
:101C3000F60111928A95E9F70E94C90CB5CF2513D8
:101C40000FC094130DC0E1100BC0F8018583C801CB
:101C50000E94DB0A86E0F60111928A95E9F74DCFE2
:101C6000C8010E943B0B882389F2EE2079F2809113
:101C70001803803208F4BBCF209113033091140372
:101C80003A8329831B82BD82AC828E83CE0101966A
:101C9000ACCFE83CF10508F03EC0FE2CEE2009F484
:101CA000B5CF25132AC0941328C08091180380FD56
:101CB0001BC0982F907FC1F0F8018583903F31F0D1
:101CC000982F907F905F8F70892B8583C8010E9429
:101CD000DB0A86E0F801A3E1B3E001900D928A955A
:101CE000E1F70E94C90C09CF86E0F801A3E1B3E057
:101CF00001900D928A95E1F700CFC8010E943B0B3D
:101D0000811175CF80911803816080931803C801F9
:101D10000E94DB0AF2CE7A2DB98AA88A6E2D8989B3
:101D20000E944E0B86E0F60111928A95E9F7D9CF11
:101D3000EE2009F46BCFC8010E943B0BF82E8823DC
:101D400009F464CF86E0F801A3E1B3E001900D92BD
:101D50008A95E1F783E193E00E941D080E94D80C68
:101D6000C0CF81E08E25D7CEACE0B0E0EAEBFEE05C
:101D70000C94362C4F83588769877A878B879C878A
:101D8000CE0107960E942D0D882369F08A859B85D8
:101D9000892B39F04F815885842F85238F3F09F097
:101DA0006BC016E05FC086E0FE013796DE0111963B
:101DB00001900D928A95E1F78A859B85892B89F39D
:101DC0008F81988589238F3F61F32091E20230E073
:101DD000C9010196877099274091E10248171906B9
:101DE00071F40E941B0B1092E2021092E10286E055
:101DF000E3E1F3E0DF011D928A95E9F7D2CF96E0A7
:101E0000929FD001939FB00D1124AD51BD4FFE01A3
:101E1000319601900D929A95E1F78093E2020E942B
:101E2000A80CBFCF819FC00111248D519D4F0E94EE
:101E30002D0D8823E9F0E091E1021E9FF0011124AD
:101E4000ED51FD4F40815181628173818481958183
:101E50000E94580B8091E10290E0019687709927CB
:101E60008093E1028091E1029091E2028913DACF3E
:101E70002C96E3E00C94522C69857A858B859C85A1
:101E80000E94580B8ECF682F809100019091010124
:101E90000E94A9220895682F80910001909101016C
:101EA0000E94AC22089580910001909101010E944E
:101EB000AF22089580912103859585958595089594
:101EC000809121038770089590912103977081E09C
:101ED00009F480E0089580912C03089590912C03DB
:101EE000892B80932C030895809590912C0398233F
:101EF00090932C03089510922C03089590912B0336
:101F0000892B80932B030895809590912B03982320
:101F100090932B03089510922B0308958091220330
:101F2000089508950E94910F08959091710392FF72
:101F300008C090912203981721F0809322030E94F9
:101F4000920F089580912203882329F01092220392
:101F500080E00E94920F0895CF93DF93E0910001FB
:101F6000F091010180912C038083E0910001F091B8
:101F70000101808190912B03892B80839091220312
:101F8000992381F0E0910001F09101018081892B7A
:101F9000808380910001909101010E946122811152
:101FA0000E94A20FC0910001D091010148E050E0D1
:101FB00069E173E0CE010E94722C892B59F088E010
:101FC000FE01A9E1B3E001900D928A95E1F7CE01FF
:101FD0000E94E321DF91CF91089508950E94ED0FB3
:101FE00008959091710392FF11C098E0899F90012C
:101FF0001124622B609321030E949D0B8091210389
:102000008595859585950E94EE0F08950E949D0BFC
:1020100008951092210380E00E94EE0F08959091A0
:1020200021038095892380932103282F277091F421
:10203000282F082E000C330B9217130659F090919D
:10204000710392FF07C08595859585950E94A90B20
:102050000E9409100895CF93C82F8091710382FBCD
:10206000992790F99C17E9F0C0FB82F980937103DE
:1020700080917003909171030E94901082E00E9401
:102080000F1080913D0380FF0CC01F92CF9381E021
:1020900092E09F938F930E9453060F900F900F90A2
:1020A0000F90CF9108958091710382FB882780F96A
:1020B00091E089270E942B10089581E00E942B1047
:1020C000089580E00E942B1008956FEF7FEF90E05D
:1020D00080E00E94B42C089590E080E00E94902C53
:1020E000883E9E4F19F40E94BC18089580E0089520
:1020F00082E090E00E94882C089583E090E00E94A6
:10210000882C0895CF9384E090E00E94882CC82FFB
:1021100082E290E00E94882C982F8C2FCF91089516
:10212000CF93C92F682F84E090E00E94962C6C2FEB
:1021300082E290E00E94962CCF910895AB01BC0101
:102140008FE090E00E94A82C0895AB01BC0183E1D0
:1021500090E00E94A82C089560E070E0CB010E94FE
:10216000A510089560E070E0CB010E949E100E94CF
:10217000AC10089568EE7EEF90E080E00E94B42CF1
:1021800060E082E090E00E94962C60E083E090E0C6
:102190000E94962C1092E00260E084E090E00E94A1
:1021A000962C64E082E290E00E94962C60E085E04C
:1021B00090E00E94962C60E086E090E00E94962CD1
:1021C0006FEF87E090E00E94962C40E050E0BA016B
:1021D00088E090E00E94A82C60E08DE090E00E94F2
:1021E000962C40E050E0BA0188E190E00E94A82CD3
:1021F00060E087E190E00E94962C40E050E0BA0158
:102200008CE190E00E94A82C70E060E080E290E019
:102210000E94B42C40E050E0BA0188E190E00E94B6
:10222000A82C80E00E94D5180E9404190E94B210C8
:1022300008950E94BA100895682F8EE090E00E94E1
:10224000962C08950E9472236093390370933A0389
:1022500080933B0390933C03609335037093360364
:1022600080933703909338030895089508950E944A
:102270003611089508950E943A1108958AED95E265
:102280000E94CC210E9435110E943711089581E0EF
:1022900008950E9447110895089508950E944C11D1
:1022A0000E944D1108950E94F1130E949A0708950B
:1022B0000E945D230E9414190E9407150E94531169
:1022C0000E943B110895AAE0B0E0E9E6F1E10C9428
:1022D0002C2C0E941D1500912F031091300380E0DB
:1022E0000E94141408171907D1F5009131031091B9
:1022F000320381E00E9414148017910781F5009148
:1023000033031091340382E00E9414140817190754
:1023100031F50E9466238C0180912D0390912E034C
:1023200008171907A1F08FEF89838A831B820E9407
:1023300066238160782F9D838C8349815A816B81CC
:102340008D810E94E80710932E0300932D030E94B5
:10235000C0170E94AD072A96EDE00C94482C80919E
:102360003D0381FD0E941D140E944911782E2FE229
:10237000822E23E0922E10E0812F0E9414147C0103
:10238000F401A190B1904F018A159B0561F1A82637
:10239000BF2400E0CC24C394D12CC5018C219D2105
:1023A000892BC1F07720B1F00E831F8321E0C70194
:1023B0008C219D21892B09F420E028870E94662327
:1023C0008160782F9A8789874E815F8168858A85A9
:1023D0000E94E8070F5FCC0CDD1C0C30F1F6F40115
:1023E0003297F182E0821F5F133031F60E94221192
:1023F000AECFCF93DF930E94EF12EC01811521E560
:10240000920708F042C0811530E5930708F09FC09D
:10241000883E910530F5803E910508F094C0883AD9
:10242000910588F4853A910508F086C081309105C0
:1024300009F489C0009709F486C0049708F083C0A6
:10244000D0E0C0E080C08F3B9105D0F7C85AD0E003
:10245000CC0FDD1FC85BDE4F0990D881C02DD4643E
:1024600072C0811540E2940750F4C11581E0D8078D
:1024700008F069C0C03FD10518F3D06564C081156C
:102480009044F0F2DF70D06A5EC0811535E59307A5
:1024900018F5811544E5940708F085C0C11583E55A
:1024A000D80708F06CC0C11522E5D20708F462C055
:1024B000CE018370992721E030E002C0220F331F44
:1024C0008A95E2F7C695C69580E2C89FE00111247F
:1024D000C22BD32BDC6837C0811539E59307A8F4EC
:1024E000811548E5940708F063C0C11586E5D80753
:1024F00008F0A6CF8C2F0E949113C82FD0E0DC2FBC
:10250000CC27CC27DF71D0621EC081152AE5920747
:1025100008F453C090568115904208F091CF8D2F4A
:102520008F710E94911390E0982F882788279F71C0
:102530009C012C2BE901E7CFC55AD0E0CA58DE4FE9
:10254000C881D0E0D064CE01DF91CF91089583702F
:10255000992721E030E002C0220F331F8A95E2F76D
:10256000C695C69540E2C49FE0011124C22BD32B2F
:10257000DD68E9CFDC2FCC27C16FD06AE4CFCE0174
:102580008370992721E030E002C0220F331F8A9523
:10259000E2F7C695C69540E2C49FE0011124C22B24
:1025A000D32BDA68D0CFD82FCC27C46FD06ACBCF4B
:1025B000D82FCC27C06FD06AC6CF8F700E949113DE
:1025C00034E0D695C7953A95E1F7CF709C2FEC0192
:1025D000D069B9CF0E9434200E94F9110895823841
:1025E0009105B9F1B0F48133910509F47DC048F447
:1025F0008932910509F46DC08A32910509F47BC0D6
:1026000008958533910509F45FC08933910509F177
:102610000895833E9105D9F138F4803E910529F162
:10262000823E910579F10895863E9105D9F1873E64
:10263000910509F43EC0843E910541F52091710356
:1026400021FF24C08091700384FD19C087EE90E0C3
:10265000089520917003237009F05AC020917103EE
:1026600023FF14C089E290E008952091700320FDBB
:1026700038C03091710330FF09C024FF43C090E09F
:1026800080E008952091700322FDF7CF08952091F6
:10269000700322FD3AC03091710330FD39C024FF30
:1026A000F5CFEDCF2091700323FFF0CF24FDE7CFCE
:1026B000CDCF2091700323FD2EC03091710331FFE7
:1026C000EECF84EE90E008952091700325FFDECFD9
:1026D000C9CF2091700325FD21C02091710323FFF4
:1026E000D5CF89E390E0D2CF2091700326FFCECFE3
:1026F0008AE290E008952091700326FFC7CF81E31E
:1027000090E0089583EE90E0089582EE90E00895C1
:1027100080EE90E0089586EE90E0089585E390E0E5
:1027200008959091700392FF06C0282F28712830D9
:10273000F9F4877F846093FF06C0282F2871283121
:10274000F1F4877E84612091710320FF06C0382F49
:1027500038713830D9F4877F816021FF06C0282F77
:1027600028712831D1F4877E816194FD877E089598
:10277000282F24712430F9F68B7F8860DCCF282F36
:102780002471243101F78B7E8861DDCF382F3171C0
:10279000313019F78E7F8860E0CF282F21712131E9
:1027A00021F78E7E8861E1CF0E94651008950E9416
:1027B0001D152FEF86E791E0215080409040E1F712
:1027C00000C000000E941D1580E00E94141480FFCC
:1027D00004C00E94D4130E94B12308950E94D7130D
:1027E00008950E946C10811102C00E9419110E946C
:1027F000781080933D030E94821090937103809320
:1028000070030E94EE130E947D100E946E0B809157
:10281000DF020E94860B089508950E940C1408950B
:1028200008950E9410140895E82FF0E0EE0FFF1FA6
:10283000E858FC4F808191810895B0E0A0E0E3E288
:10284000F4E10C94312C86E292E00E94BA0588E70C
:10285000E82E83E0F82ED0E0C0E091E2C92E92E0AD
:10286000D92E08E112E0DF93CF93DF92CF920E943E
:1028700053068EE192E00E94BA05F7018191919191
:102880007F010E9484079F938F931F930F930E9451
:10289000530686E192E00E94BA0521968DB79EB755
:1028A00008960FB6F8949EBF0FBE8DBFC330D105FA
:1028B000D1F6CDB7DEB7E8E00C944D2C80EA8A95CE
:1028C000F1F7089500C008950E945E140895F894E9
:1028D000E82FE295EF70F0E031A1282F2F7081E012
:1028E00090E001C0880F2A95EAF7982F90959323DE
:1028F00091A392A1892B82A378940895CF93DF931B
:1029000081E90E94671480E90E94671484E90E94AB
:102910006714C9E7D1E089918F3F11F00E946714D5
:1029200081E0C538D807B9F7DF91CF910895AF920C
:10293000BF92DF92EF92FF920F931F93CF93DF939B
:102940008C01D62EC62FD0E0CE018B579E4F7C0136
:10295000FC0120812F3F09F44DC0F894E22FE2954D
:10296000EF70F0E031A12F7081E090E001C0880F9E
:102970002A95EAF7932F982B91A392A1809589230A
:1029800082A378940E946214E9E7F1E045E851E0FF
:1029900021E030E0B12CA12C61916F3FA9F1A62F6D
:1029A000A295AF70B0E090968C9190E06F7002C0ED
:1029B000959587956A95E2F780FD26C0C901A82AFA
:1029C000B92A220F331F4E175F0731F7F7018081B5
:1029D0008F3F11F00E94671461E0A114B10409F463
:1029E00060E08D2D0E946414CC0FDD1FC00FD11F3D
:1029F000B982A882DF91CF911F910F91FF90EF9044
:102A0000DF90BF90AF90089590E080E0D8CF0E9413
:102A10007E1486E0E8E7F3E0DF01982F1D929A9597
:102A2000E9F7E2E7F3E0DF011D928A95E9F783E039
:102A30000E945B150E94D4060895A6E0B0E0E3E290
:102A4000F5E10C94352C8E010F5F1F4F86E0F801E5
:102A500011928A95E9F760E0C8010E94971461E03D
:102A6000C8010E94971462E0C8010E94971446E0D2
:102A700050E0B80182E793E00E94722C21E00097B9
:102A800009F420E0892B41F086E0F801A2E7B3E0E9
:102A900001900D928A95E1F743E068E773E082E7E1
:102AA00093E00E945C15182F0E94D706812F26966E
:102AB000E4E00C94512C0895CF92DF92EF92FF92B4
:102AC0001F93CF93DF936C017B01C42F222349F026
:102AD00081E0809340030E94662390933F0380939C
:102AE0003E031091400311110AC010E0812FDF91C5
:102AF000CF911F91FF90EF90DF90CF90089580913C
:102B00003E0390913F030E947E23059770F3D0E02F
:102B1000CC0FDD1FAE01B601C7010E94722C892BBC
:102B200041F0AE01B601C7010E947F2C1092400314
:102B3000DDCF10E0FBCF0E9456260E9458110E9464
:102B4000632608950E9468260E9463110E948626CB
:102B500008950E94FF220E943C260E943E110E947E
:102B60009B150E94A2150E944E11FBCF8091470336
:102B700080FF0DC06091070170E0660F771F60381D
:102B8000710570F56115710569F1862F089581FF52
:102B900007C06091070184E0689FB0011124EFCF66
:102BA0006091070182FD0AC0809146038823A9F045
:102BB0002091060160910701821710F088E0ECCFA8
:102BC000869FC001112433E0880F991F3A95E1F7E1
:102BD000622F70E00E94062CD2CF68E070E0D5CF63
:102BE0008FE7089581E008958091470380FF0CC02E
:102BF0006091030170E0759567957595679561150E
:102C0000710549F1862F089581FF06C06091030187
:102C100070E075956795F3CF6091030182FD0BC05D
:102C2000909145039923A1F06091020180910301E5
:102C3000961738F0682F70E06038710500F38FE761
:102C40000895899FC001112470E00E94062CF4CFE2
:102C500061E070E0D7CF81E00895803F31F40E94B9
:102C6000B615819580934B030895813F19F40E9416
:102C7000B615F8CF823F31F40E94B6158195809346
:102C80004A030895833F19F40E94B615F8CF893F8F
:102C900029F40E94F41580934C0308958A3F21F48F
:102CA0000E94F4158195F7CF8B3F31F40E94F41503
:102CB000819580934D0308958C3F19F40E94F4157B
:102CC000F8CF9CE0980F953070F4845F990B21E069
:102CD00030E001C0220F8A95EAF780914903822BE8
:102CE0008093490308958D3F31F4809147038160BB
:102CF0008093470308958E3F21F4809147038260BB
:102D0000F7CF8F3FB9F7809147038460F1CF4091AF
:102D10004A03803F59F480914B0387FF0DC0109206
:102D20004B0341110BC01092460308C0813F81F450
:102D300080914B0318169CF3442381F080914C033F
:102D400090914D03892B09F05AC0109245030895C4
:102D5000823F49F447FFF0CF10924A0380914B0322
:102D60008111ECCFE0CF833F19F41416ACF3E4CF1C
:102D700090914C03893F29F41916F4F610924C03F4
:102D8000DBCF8A3F19F497FFD7CFF8CF90914D034F
:102D90008B3F29F497FFD0CF10924D03CDCF8C3FBE
:102DA00019F41916CCF3C8CF9CE0980F953090F425
:102DB000845F990B21E030E0B90102C0660F771FF4
:102DC0008A95E2F7CB0180959091490389238093FE
:102DD0004903B2CF8D3F31F4809147038E7F8093BA
:102DE0004703AACF8E3F21F4809147038D7FF7CF11
:102DF0008F3F09F0A1CF809147038B7FF0CF0895DB
:102E000080913D0383FF7EC084E692E00E94BA0574
:102E1000809149031F928F938FE592E09F938F9348
:102E20000E9453068DE592E00E94BA0580914A0304
:102E3000282F082E000C330B3F938F938AE592E0E6
:102E40009F938F930E94530688E592E00E94BA05F3
:102E500080914B03282F082E000C330B3F938F9348
:102E600085E592E09F938F930E94530683E592E05D
:102E70000E94BA0580914C03282F082E000C330BBA
:102E80003F938F9380E592E09F938F930E94530628
:102E90008EE492E00E94BA0580914D03282F082EFF
:102EA000000C330B3F938F938BE492E09F938F93AF
:102EB0000E94530688E492E00E94BA05809146037E
:102EC0001F928F9385E492E09F938F930E94530605
:102ED00083E492E00E94BA05809147031F928F938A
:102EE00080E492E09F938F930E9453068DE392E0DB
:102EF0000E94BA058DB79EB74C960FB6F8949EBF48
:102F00000FBE8DBF0E9466239C0190914A03809161
:102F10004B03982B21F0309344032093430390916B
:102F20004C0380914D03982B21F030934203209362
:102F3000410388E493E00E942722089586E0E8E4B4
:102F4000F3E0DF011D928A95E9F710924603109293
:102F50004503109247030895FC01828181110EC040
:102F6000838181110BC08481811108C091E085812A
:102F7000811101C090E0892F8170089581E0FCCF1C
:102F8000A6E0B0E0E6ECF7E10C94362C86E0E8E44D
:102F9000F3E0DE01119601900D928A95E1F710920F
:102FA0004A0310924B0310924C0310924D038B81F5
:102FB0009C81892B89F080914303909144030E9466
:102FC0007E23AC01909146039923C9F180910801B9
:102FD0008417150608F440C08D819E81892B91F0DD
:102FE00080914103909142030E947E23AC01909115
:102FF0004503992309F471C08091040184171506D3
:1030000008F479C0BE016F5F7F4F88E493E00E94AF
:10301000B622811105C088E493E00E94AC178111AB
:103020000E94001786E0FE013196A8E4B3E001900B
:103030000D928A95E1F72696E3E00C94522C2091AC
:1030400009018AE0289F900111242417350720F6F2
:103050009F5F9093460302C09F3FD1F71B811123CE
:1030600059F00E94B6159FEF11160CF491E0899F5C
:10307000802D112480934A031C81112359F00E9452
:10308000B6159FEF11160CF491E0899F802D112445
:1030900080934B0330914A03332309F49DCF209151
:1030A0004B03222309F498CF45EB3403C0011124CC
:1030B000992359F090934A0345EB2403900111247E
:1030C000332339F030934B0387CF81E080934A0359
:1030D000F3CF81E080934B037FCF209105018AE0FD
:1030E000289F900111242417350708F08BCF9F5F8C
:1030F0009093450302C09F3FD1F71D81112359F0E2
:103100000E94F4159FEF11160CF491E0899F802D19
:10311000112480934C031E81112359F00E94F41551
:103120009FEF11160CF491E0899F802D112480935C
:103130004D0330914C03332309F464CF20914D03A8
:10314000222309F45FCF45EB3403C00111249923F6
:1031500059F090934C0345EB240390011124332341
:1031600039F030934D034ECF81E080934C03F3CF81
:1031700081E080934D0346CF83E290E00E94882C4B
:10318000823289F484E290E00E94882C883059F4DD
:1031900085E290E00E94882C91E0803309F090E075
:1031A000892F8170089580E0FCCFCF93C82F6FEFF7
:1031B000811162E283E290E00E94962C6FEFC111D0
:1031C00068E084E290E00E94962C6FEFC11160E30A
:1031D00085E290E00E94962CCF910895089586E2B2
:1031E00090E00E94882C682F70E090E080E00895C5
:1031F0000895CF93C62F0E94F8186C2F86E290E0B6
:103200000E94962CCF91089580E00E94D51860E02E
:1032100070E0CB010E94F9180E94AE1F0E9491201D
:1032200081E00E94D51808950E94EE180E94EF18C0
:103230000E94F8180E94BC18811102C00E94041953
:103240000895CF93FB01C281CC2309F19C01225147
:103250003F452031310520F582510E94A120C0E078
:103260008C2FCF91089581E00E949D0B43E062E096
:1032700081E00E94CA06F3CF81E00E94A90B43E0DF
:1032800062E081E00E94CA06EBCF82E0F6CF803197
:10329000FFE59F0789F381319F45B9F3C1E0E0CF96
:1032A0008031EFE59E07F9F281319F45C9F682E052
:1032B000DBCF2FEFFC0120830895EF92FF920F9355
:1032C0001F93CF93DF93EC01062FE881E150E331A8
:1032D00008F05DC0F0E0E852F34D0C941A2C19820E
:1032E0008AE08A83602FCE010E945324CDB7DEB7D7
:1032F000E6E00C944F2C8981823069F0833071F0C4
:103300008130D9F40E9472230E94202C6A837B832F
:103310008C839D83E7CF0E94EF18F6CF7E0110E0EB
:10332000812F0E941414F701928383831F5FF2E0C0
:10333000EF0EF11C1330A1F7D5CF602FCE010E9404
:103340005919D0CF89818230C1F76A817B818C8104
:103350009D810E94202C0E94F918C4CF4B816A8164
:1033600089810E94701F9827892798279D838C83C5
:10337000B9CF2C813D813227232732274B816A81A7
:1033800089810E94921FAECF0E94AE1FABCF8FEFFC
:103390008883A8CF0E9442208983A4CF0E94442022
:1033A0009827892798279A8389839CCF6B8170E01F
:1033B00089819A81AE014C5F5F4F982789279827B2
:1033C0000E9447208FCF6B8170E089819A81AE0186
:1033D0004C5F5F4F9827892798270E946C2082CFE7
:1033E0000E9491207FCF0E945E1FD6CF6B8170E03C
:1033F00089819A81AE014C5F5F4F98278927982772
:103400000E94EC1F6FCF6B8170E089819A81AE01C1
:103410004C5F5F4F9827892798270E94102062CF22
:10342000CF93DF93EC01FB018281882309F464C10F
:10343000C330FDE5DF07E0F5CA3F9CE5D90730F46E
:103440009E0122503C4524313105D8F50E9482105E
:103450009093710380937003C231ECE5DE0709F4A9
:103460001FC108F06EC0C9308CE5D80709F4F2C05E
:1034700008F03FC0C530ECE5DE0709F4DBC058F5C5
:10348000C3308CE5D80709F4CDC008F0CFC08091D7
:1034900070038160C230DC4509F4AEC080917003D6
:1034A000909171030E9490100E941B0B80E009C054
:1034B000C53AEDE5DE0751F238F4C1369DE5D9078E
:1034C00029F2DF91CF9108959E012D5A3D45233079
:1034D0003105B8F7BBCF809170038062C730FCE53F
:1034E000DF0709F489C008F4B1C0809170038064DB
:1034F00083C0CD309CE5D90709F4BAC070F480913F
:1035000070038E7FCB30FCE5DF0709F475C008F44B
:10351000A7C0809170038D7F6FC0CF309CE5D90725
:1035200009F4B6C008F4A8C0C031FCE5DF0709F40F
:10353000B3C0C131DC4509F0B1CF809170038F7BFE
:103540005BC0CF3F9CE5D90709F4B4C098F5CA3FEA
:10355000FCE5DF0709F472C0B8F4C4319CE5D90773
:1035600009F4B6C008F4A2C0C531DC4509F096CF15
:103570008091700382FB992790F921E0922790FBBC
:1035800082F990FB83F938C0CC3F8CE5D80709F469
:1035900077C008F457C0CD3FECE5DE0709F474C0EE
:1035A000809171038360CE3FDC4509F077CF809333
:1035B000710374CFC1368DE5D80709F496C068F45D
:1035C000C130EDE5DE0709F48CC008F477C0C230E5
:1035D000DD4509F063CF80E085C0CD3A9DE5D90790
:1035E000E9F068F490917003892F8E7F90FF8160DD
:1035F000C53ADD4509F052CF809370034FCFCE3AE4
:103600008DE5D80789F1CF3ADD4509F047CF909194
:103610007103892F877F93FF8860C9CF80917103E1
:103620008860C5CF809170038260E6CF809170037F
:103630008460E2CF809170038860DECF8091710357
:103640008160B5CF809171038260B1CF80917003AA
:103650008061D2CF0E941B0B809170038068CCCF19
:10366000809170038C60C8CF80917103877F9FCF5A
:10367000809170038B7FC0CF80917003877FBCCF18
:10368000809171038E7F93CF809171038D7F8FCF57
:10369000809170038F7EB0CF809170038F7DACCF0F
:1036A0000E941B0B809170038F77A6CF80917003CF
:1036B000837FA2CF809171038C7F79CF809171033A
:1036C000982F909591708E7F892B90FB81F96FCF09
:1036D0000E941B0B90917003892F97FB87F98058EC
:1036E0008BCF81E00E941C11D9CE90917003892F5D
:1036F0008F7E94FF806180CF81E0E3CEB0E0A0E0D8
:10370000E4E8FBE10C94322CE82FF0E0E957FD4FA0
:10371000D490282F26952695269530E0F901E95D6D
:10372000FC4F0491877010E0082E02C01595079594
:103730000A94E2F701701127F901E95EFC4FE49069
:10374000F12C082E02C0F594E7940A94E2F791E078
:10375000E922FF24F901E95FFC4FC491D0E002C0E7
:10376000D595C7958A95E2F7C170DD27011511053A
:1037700019F081EE0E942308E114F10419F086EE9D
:103780000E9423088D2D0E94BE08E114F10419F057
:1037900086EE0E9474080115110519F081EE0E9451
:1037A0007408CD2B19F08CE20E94BE08CDB7DEB7AD
:1037B000E7E00C944E2CEF92FF920F931F93CF9360
:1037C000DF93EC01162F0AE08881882309F454C0A6
:1037D000813009F04EC08981813099F47E0122E068
:1037E000E20EF11C8A810E94BE08E7012196812F1A
:1037F000815050F3EFE9FFE03197F1F700C000008E
:10380000F7CF823041F47E0182E0E80EF11C8A811C
:103810000E942308EACF833041F47E01E2E0EE0EFD
:10382000F11C8A810E947408E0CF843011F0219647
:10383000DDCF2A81229690E080E0AE014F5F5F4F9E
:103840002053330B2A30310548F0019778F2EFE925
:10385000FFE03197F1F700C00000F7CF089FB001FB
:10386000099F700D1124C901860F971F2981EA0154
:10387000E4CF0E947E1BBACFCDB7DEB7E6E00C9452
:103880004F2C809102011F928F93809103011F9210
:103890008F93809106011F928F93809107011F9251
:1038A0008F93809108011F928F93809109011F923D
:1038B0008F9387E393E09F938F930E9453068DB776
:1038C0009EB70E960FB6F8949EBF0FBE8DBF08959B
:1038D000883228F58E3108F072C08B3041F130F417
:1038E000873009F4CFC086E994E0E0C0833109F461
:1038F0005FC08431C1F788EB94E00E94BA058091E3
:103900005203882309F4FEC010925203109251030F
:103910001092500310924F0310924E0320C08F3428
:1039200009F4C7C0D8F5893231F38833E1F68BEB5F
:1039300094E00E94BA050E94411C1F9281E08F937F
:103940001F9288E08F9384EB93E09F938F930E9464
:1039500053060F900F900F900F900F900F902091A3
:103960005203222309F4C9C080914E0390914F0362
:10397000009711F488E891E09F938F931F922F9303
:1039800084E894E09F938F930E9453060F900F90CA
:103990000F900F900F900F9081E00895813509F4FA
:1039A0009CC008F49CC0823509F09DCF81E082C0A4
:1039B0008AEA94E00E94BA050E94411CD0CF8D5142
:1039C00080935203833009F442C058F48130C1F02F
:1039D0008230A1F11092520387EA94E00E94BA0566
:1039E0001BC0853009F445C0D8F1863099F782E0D4
:1039F00091E0909351038093500380ED91E008C0D3
:103A000089E091E090935103809350038CE891E01A
:103A100090934F0380934E0380915203882309F4BF
:103A20009ECF1F928F9383EA94E09F938F930E947F
:103A300053060F900F900F900F9091CF88E091E078
:103A4000909351038093500385E991E0E1CF87E0A3
:103A500091E0909351038093500381EA91E0D8CF95
:103A600086E091E090935103809350038EEA91E0B9
:103A7000CFCF83E091E090935103809350038DEB7F
:103A800091E0C6CF81E08093090184E18093080131
:103A90008AE0809307018EE18093060188E080939D
:103AA000030188E28093020189E994E00E94BA054B
:103AB00056CF8AE0E0915003F09151033097D1F056
:103AC0002081082E000C990B820F911D8F3F9105CC
:103AD00041F03CF08FEF808307C08FEFEBCF86EF94
:103AE000E9CF97FFF8CF108280811F928F9380E9F2
:103AF00094E09BCF8DE894E0D9CF80E894E00E94D9
:103B0000BA054ACF80E00895CF93C82F1F928F93B4
:103B100081ED94E09F938F930E94530681E001C052
:103B2000880FCA95EAF70E946E0B0E941B0B0F903C
:103B30000F900F900F90CF910895EF92FF920F93F7
:103B40001F93CF93DF938B3109F410C108F0B0C0FD
:103B50008B3009F4CCC008F082C0863009F4DAC09A
:103B600048F4853009F4B2C086E798E00E94BA05AF
:103B700080E0E0C0873009F4E2C08830A9F70E94F5
:103B80007D101F928F9389E598E09F938F930E94F9
:103B900053060E94781083FB992790F91F929F93F8
:103BA00082FB992790F91F929F9381FB992790F9A7
:103BB0001F929F93982F91701F929F931F928F93A4
:103BC00080E198E09F938F930E9453060E94821099
:103BD00093FB222720F91F922F9387FB222720F99E
:103BE0001F922F9386FB222720F91F922F9385FB8C
:103BF000222720F91F922F9384FB222720F91F925E
:103C00002F9383FB222720F91F922F9382FB2227D9
:103C100020F91F922F9391FB222720F91F922F93B7
:103C2000292F21701F922F9381FB222720F91F92A9
:103C30002F93282F21701F922F939F938F9381E1B1
:103C400097E09F938F930E9453068DB79EB78A96F5
:103C50000FB6F8949EBF0FBE8DBF81E06BC0803160
:103C600009F49CC080F48E3009F07ECF90913D0322
:103C7000892F8B7F92FF846080933D0382FF8BC0EE
:103C800081EA98E07FC0863109F498C0893109F053
:103C90006BCF85EE91E09F938F9381E495E09F93A6
:103CA0008F930E9453060F900F900F900F90D5CFD7
:103CB0008A3249F190F4873211F128F48E3108F4F8
:103CC00053CF8D511DC0893209F04ECF84EE98E05C
:103CD0000E94BA050E94E906C0CF833468F48A3393
:103CE00008F091C0853359F0883309F03DCF8BE659
:103CF00095E00E94BA05B1CF833409F035CF80E05A
:103D00000E94841DAACF84E099E00E94BA050E9417
:103D10001911A3CF80913D03807F80933D0384E4FC
:103D200095E00E94BA0580E099E00E94BA0581E022
:103D300080935303CDB7DEB7E6E00C944F2C9091FF
:103D40003D03892F8E7F90FF816080933D0380FF2C
:103D500003C088ED98E0CDCF8BEC98E00E94BA05C7
:103D600080913D03817F80933D0377CF90913D0308
:103D7000892F8D7F91FF826080933D0381FF08C072
:103D80008EEB98E00E94BA0580913D038160EBCFF5
:103D900080EB98E0AECF81E998E0ABCF90913D0306
:103DA000892F877F93FF886080933D0383FF03C043
:103DB00085E898E0E7CF88E798E09BCF0E947223E0
:103DC000162F072FF82EE92ED0916F03C091160100
:103DD0000E94D621EF92FF920F931F931F92DF93C1
:103DE0001F92CF931F928F9386ED94E09F938F93B2
:103DF0000E9453068DB79EB70C960FB6F8949EBFDF
:103E00000FBE8DBF2ACF89537BCF80E008950E94DB
:103E1000051F0895CF93C82F809153038130C1F0BF
:103E2000882339F0823009F444C01092530380E0B3
:103E30000DC00E946B0F8232D1F78C2F0E94051F9C
:103E400081111BC08C2F0E949D1D8170CF91089500
:103E50000E946B0F823289F38C2F0E94071F811101
:103E60001BC0C431D9F060F4CB3071F0C031D1F057
:103E70008BEC94E00E94BA0513C081E090E0E5CF9E
:103E8000C93261F0C833A1F784E495E00E94BA0515
:103E90008DEC94E00E94BA0581E0D7CF10925303D5
:103EA00080E0D3CF82E08093530388E30E94681CB4
:103EB000F3CF8C2F0E94681C81E0C8CF84E0089566
:103EC00050E0440F551F98E1699F400D511D11248A
:103ED00098E4899F400D511D1124CA0187960895C9
:103EE0000F931F93CF93DF938430C8F46330B8F4FB
:103EF0004C30A8F40E94601F8C010E94882CC82FAF
:103F0000D0E0DC2FCC27C80101960E94882C9E01AE
:103F1000282BC901DF91CF911F910F91089590E057
:103F200080E0F8CF0F931F93CF93DF93122F032FCF
:103F3000843078F4633068F44C3058F40E94601F89
:103F4000EC01602F0E94962C612FCE0101960E94F9
:103F5000962CDF91CF911F910F910895B0E0A0E0D2
:103F6000E4EBFFE10C94302C9CEAC92E90E0D92EB2
:103F7000D0E0C0E07601B12C20C00E945C0621E0B8
:103F800030E08C171D0641F03CF0F801EE0FFF1FEA
:103F9000EE0DFF1D25913491402F6B2D8C2F0E942B
:103FA000921F0F5F1F4F0C30110539F788E1E80EA3
:103FB000F11CB39483E0B81619F010E000E0DDCFF7
:103FC000219688E4C80ED11CC430D10599F6CDB72E
:103FD000DEB7E9E00C944C2CEF92FF920F931F9305
:103FE000CF93DF93EC018A017C01E60EF71ECE0130
:103FF0008796CE15DF0529F4CDB7DEB7E6E00C9441
:104000004F2CC03221E0D20740F40E94882CF801E6
:1040100080830F5F1F4F2196EACFF8011082F9CFFE
:10402000B0E0A0E0E6E1F0E20C94312C7C016A0102
:104030008C01060F171FEC01CE018796C017D10720
:1040400029F4CDB7DEB7E8E00C944D2CC03221E066
:10405000D20740F4FE01EE19FF09EC0DFD1D608151
:104060000E94962C2196E8CF462F843040F473307E
:1040700030F46C3020F4672F0E94701F089590E098
:1040800080E0089580E1089589EB92E00895EF9231
:10409000FF920F931F93CF93DF93EC018A017C0172
:1040A000E60EF71ECE01895B9E4FCE15DF0529F483
:1040B000CDB7DEB7E6E00C944F2CC93B22E0D20727
:1040C00040F40E94882CF80180830F5F1F4F2196D7
:1040D000E9CFF8011082F9CFB0E0A0E0E2E7F0E22A
:1040E0000C94312C7C016A018C01060F171FEC0126
:1040F000CE01895B9E4FC017D10729F4CDB7DEB73B
:10410000E8E00C944D2CC93B22E0D20740F4FE01BC
:10411000EE19FF09EC0DFD1D60810E94962C219681
:10412000E7CFCF93DF93C7E4D1E060E0CE010E94F8
:10413000962C2196C11584E0D807B9F7DF91CF916D
:104140000895A4E0B0E0E7EAF0E20C94322CF82EF7
:104150008FE08F1548F18FEF93E00E94882C81113A
:1041600023C007E411E0F11023C019821A821B82D8
:104170001C82DD24D39478018FEFE81AF80AC80175
:104180000E94882C89831A82882371F09FEF980FF0
:104190009330D8F48A83D9820E5F1F4FC7010E94E3
:1041A000882C8B83811112C02496E7E00C944E2C4E
:1041B000011584E01807C1F3C8010E94882C811101
:1041C00001C0FA940F5F1F4FCECF870160E0CE0190
:1041D00001960E94DB1BCFCFCF93DF93EB0186319B
:1041E0009C4511F50E946B0F9A81992399F08A7A68
:1041F00091E009F490E090935403811109C089E2A1
:104200000E94430F0E94AC0F80E0DF91CF91089590
:1042100085E3F6CF80915403811104C089E20E94A6
:104220004B0FF0CF85E3FBCF81E0EFCF0F931F93D0
:10423000CF93DF93C42FD22FFC0182818823C9F052
:10424000409357030E94662390935603809355032F
:1042500080E28C0F883040F4C77081E001C0880F85
:10426000CA95EAF70E94C708DF91CF911F910F917D
:10427000089510915703141332C080915503909103
:1042800056030E947E23883C910548F5C0E2CD0F7D
:104290001D17B9F080E2810F883040F4177081E07B
:1042A00001C0880F1A95EAF70E94CE08C83048F47A
:1042B00081E09D2F977001C0880F9A95EAF70E94C0
:1042C000C708802F0E94BE08C83070F6D77081E002
:1042D00001C0880FDA95EAF70E94CE08C5CF80E2C8
:1042E0008C0F883008F6C77081E001C0880FCA952E
:1042F000EAF7F2CF0F939C01CB01233F4CE5340743
:1043000059F1A8F4283DFCE53F0701F1293D4CE5B2
:104310003407D1F1273D3C4591F406E221EE41EE10
:1043200067ED7CE50E94162180E00F910895253FFE
:10433000FCE53F07E9F0B0F0263F3C45F9F0FC0111
:104340008281882339F110925703EFCF07E225EEDF
:1043500045EE68ED7CE5E6CF06E221EE40EE63EF48
:104360007CE5E0CF07E225EE44EE64EF7CE5DACFB2
:1043700006E221EE42EE65EF7CE5D4CF07E225EEC2
:1043800046EE66EF7CE5CECF08E221E045EE69ED32
:104390007CE5C8CF81E0C9CF9093C9028093C80261
:1043A000089590935D0380935C030895E0915C030E
:1043B000F0915D03309729F00190F081E02D09958F
:1043C000089580E00895EF92FF920F931F93CF938B
:1043D000DF938C01E0915C03F0915D03309791F1E4
:1043E0000280F381E02D099580913D0382FF2AC070
:1043F00080FF04C08DE199E00E94BA05D0E0C0E0E2
:1044000087E1E82E89E0F82E80913D0380FF0EC001
:10441000F801EC0FFD1F80811F928F93FF92EF92A6
:104420000E9453060F900F900F900F902196C83066
:10443000D10551F780913D0380FF04C085E199E0EB
:104440000E94BA05CDB7DEB7E6E00C944F2CE091A0
:104450005C03F0915D03309739F022E0DC012C938E
:104460000480F581E02D0995089520915A0330913B
:104470005B032817390771F090935B0380935A030D
:10448000E0915C03F0915D03309721F00680F781A5
:10449000E02D09950895209158033091590328176C
:1044A000390771F09093590380935803E0915C03AE
:1044B000F0915D03309721F00084F185E02D09959E
:1044C00008959C012E5F3F4FAC01485F5F4F80E035
:1044D0002417350709F40895F90191919F01992353
:1044E000B9F38F5FF5CF662349F0FC013296089649
:1044F0002191261729F0E817F907D1F780E00895F0
:1045000081E008959C01FC0132969FEF80E041918B
:10451000461751F09F3F19F4411101C0982F8F5F4A
:104520008630A9F79F3F09F40895290F311D97FDA3
:104530003A95F90162830895FC013296089621911B
:10454000261303C0DF0111971C92E817F907B9F78A
:1045500008950E94822208950E949C220895029646
:1045600026E0FC0111922A95E9F7089546E050E013
:104570000E94722C21E0892B09F420E0822F0895FB
:1045800008950E94C0220895811106C081E08093A1
:104590005E030E94C122089582E0F9CF83E08093F8
:1045A0005E030E94C12208950E94C422089581E002
:1045B00080935E030E94C12208950E94D72208952D
:1045C000089508950E94E1220895089508950E9493
:1045D000E0220895CF930E94E5220E941D150E94BB
:1045E000E622C0E08C2F0E941414892B31F4CF5F97
:1045F000C330C1F780E0CF91089581E0FCCF85B74B
:10460000806885BF85B7806885BF08951F921FB6F3
:104610001F9211248F939F93AF93BF9380915F0359
:10462000811113C080917E0390917F03A09180033C
:10463000B09181034196A11DB11D80937E0390939B
:104640007F03A0938003B0938103BF91AF919F91AB
:104650008F911F901FBE1F90189580918603843004
:1046600031F10E94620710925F0388E190E020E43C
:104670000FB6F894A895809360000FBE2093600059
:1046800083B7817F846083BF83B7816083BF789461
:10469000889583B78E7F83BF0FB6F894A8958091D5
:1046A0006000886180936000109260000FBE0895E2
:1046B0000E941B0B0E946707089582E084BD93E06F
:1046C00095BD9AEF97BD80936E0008952FB7F8942B
:1046D00080917E0390917F03A0918003B09181032C
:1046E0002FBF08952FB7F89460917E0370917F03D8
:1046F00080918003909181032FBF08959C014FB753
:10470000F89480917E0390917F03A0918003B091F3
:1047100081034FBF821B930B089578941F921FB69D
:104720001F9211248F939F93AF93BF9380917E0329
:1047300090917F03A0918003B09181030196A11D08
:10474000B11D80937E0390937F03A0938003B09369
:104750008103BF91AF919F918F911F901FBE1F90BA
:10476000189587E797E7909301088093000888E100
:104770009AE00FB6F894A895809360000FBE9093CE
:104780006000FFCF88E19AE00FB6F894A895809377
:1047900060000FBE90936000FFCF80916E0308957C
:1047A00008959C0184E08093E9009FEF8091E800E8
:1047B000915085FD06C085ED8A95F1F700009111B5
:1047C000F5CF8091E80085FF0CC050E040E066E046
:1047D00070E0C9010E9425278091E8008E778093C0
:1047E000E8000895CF93DF93EC0181E08093E90026
:1047F0008FEF9091E800815095FD06C095ED9A9558
:10480000F1F700008111F5CF8091E80085FF14C019
:1048100050E040E068E070E0CE010E9425278091E2
:10482000E8008E778093E80088E0FE01A6E6B3E01A
:1048300001900D928A95E1F7DF91CF9108958093D1
:1048400062037093640360936303809186038430F2
:10485000F9F48093E9008FEF9091E800815095FD85
:1048600006C095ED9A95F1F700008111F5CF809182
:10487000E80085FF0DC050E040E063E070E082E6B4
:1048800093E00E9425278091E8008E778093E800CE
:104890000895BC0184E00E941F240895BC0183E0B8
:1048A0000E941F240895CF93FC01603221F580916E
:1048B0008603843001F5C091E900CF702091EC00AF
:1048C000922F917020FD90E8C92B82E08093E9003F
:1048D0008091E80080FF0CC050E040E060E270E0B2
:1048E000CF010E9425278091E8008E778093E80011
:1048F000CF70C093E900CF91089583E499E00E94BE
:10490000BA0580918503811109C00E9404290E9483
:1049100061298091E20084608093E20008958FE332
:1049200099E00E94BA051092850308958BE399E0FF
:104930000E94BA050E94D722089587E399E00E9459
:10494000BA056091820381E0611101C080E00E949C
:10495000CE22089583E399E00E94BA0590918603E0
:1049600081E0943009F080E0609182030E94D422BB
:104970000895209161032F5F822F62E30E94FA2B3A
:10498000992319F020936103089510926103809197
:1049900065038823F1F0809186038430C1F49091FF
:1049A000E9009F702091EC00822F817020FD80E84B
:1049B000892B95E09093E9009091EB0090FF04C063
:1049C0009091EE0097FD08C08F708093E9001092DF
:1049D000650308951092F1009091E80095FDFACFDB
:1049E0009091E80090FFF0CF9091E8009E7790932F
:1049F000E800EACF42E061EC81E00E94802842E2D8
:104A000061EC84E00E94802842E261EC82E00E9436
:104A1000802842E260EC83E00E94802842E261EC60
:104A200085E00E9480289091860381E0943009F00F
:104A300080E0609182030E94C422089580918803DF
:104A4000833009F463C030F48130E1F1823009F43D
:104A5000A0C008958A3009F48CC08B3009F471C06D
:104A6000893009F052C080918703813209F04DC02E
:104A700080918B0390918C03009719F0029709F0B5
:104A800044C08091E800877F8093E8008091E8002F
:104A900082FF37C09091F3008091F200029731F4C9
:104AA0008091F100813011F0863021F48091F10085
:104AB00080936E038091E8008B778093E8000E94DA
:104AC000B42823C080918703813AF9F48091E800EB
:104AD000877F8093E80080918B0390918C03892BD2
:104AE00061F468E086E693E070E00E94C32780915D
:104AF000E8008B778093E800089560E090E080E024
:104B0000F3CF809186038111C1CF089580918703EF
:104B1000813AD9F780918B0390918C03892BA9F767
:104B20008091E800877F8093E8008091E80080FF13
:104B3000FCCF809116018093F1008091E8008E7780
:104B4000BCCF80918703813201F780918B039091D4
:104B50008C03892BD1F68091E800877F8093E80051
:104B60000E94B42880918903809316010E941B0B38
:104B7000089580918703813241F68091E800877F14
:104B80008093E8000E94B42880918A0380936F0389
:104B9000089580918703813A09F0B7CF8091E800AA
:104BA000877F8093E8008091E80080FFFCCF8091B0
:104BB0006F03C1CF9FB7F894109265039FBF909188
:104BC0008603943009F048C02091E9002F7030919D
:104BD000EC00932F917030FD90E8922B25E020930C
:104BE000E9002091EB0020FF34C02091EE0027FF68
:104BF00030C020916003222321F02091E80025FF9E
:104C000028C01092600326E03091E80035FF14C000
:104C10008093F1008091E80085FD27C08091E80035
:104C200080FFFCCF8091E8008E778093E8009F7032
:104C30009093E90080E0089530918603343049F480
:104C40003091EB0035FD05C0215041F481E08093A7
:104C500060039F709093E9008FEF0895EFE9FFE004
:104C60003197F1F700C00000CFCF8FB7F89421E063
:104C7000209365038FBFDBCF84B7877F84BF0FB6D8
:104C8000F894A895809160008861809360001092EC
:104C900060000FBE80E890E00FB6F894809361004A
:104CA000909361000FBE0E94DD2208950E940429A6
:104CB0000E946129E2EEF0E0808184608083789434
:104CC0000E94DF2B08958AE091E00E94D12108958F
:104CD00080918603853051F48FE299E00E94BA05F5
:104CE00080918603853019F00E94582308950E9410
:104CF0002D2380918403882399F30E94EA2288233C
:104D000079F30E940F270E941B0BEACFA0E2B0E0CC
:104D1000ECE8F6E20C94372C80918603843009F598
:104D200083E08093E9008091E80082FF1AC08091BF
:104D3000E80090E085FF09C050E040E060E270E0EC
:104D4000CE0101960E94742791E08091E8008B7754
:104D50008093E800992329F060E2CE0101960E9439
:104D60005D19A096E2E00C94532C0E94B826089599
:104D7000292F33272330310521F168F42130310503
:104D800009F443C02230310509F444C090E080E0CA
:104D900030E020E026C02132310551F122323105C8
:104DA000A9F76430710590F7FB01EE0FFF1FE8547F
:104DB000FD4F208131816C547D4FFB01808190E05B
:104DC00010C099278130910581F0009729F0029752
:104DD000E9F6E7E4F9E002C0EDE8F9E0849190E05B
:104DE0009F01FA01318320830895E9E7F9E0F6CFC6
:104DF0006430710558F6660F771FFB01E054FD4FD4
:104E00002081318189E090E0ECCF82E190E02CE0DC
:104E10003AE0E7CF8BE790E021E939E0E2CF80E1AB
:104E200089BD82E189BD09B400FEFDCF8091D80023
:104E30008F7D8093D8008091E00082608093E000B5
:104E40008091E00081FDFCCF0895AF92BF92CF9298
:104E5000DF92FF920F931F93CF93DF936C01EB01CF
:104E60008A010E94D328F82E811123C00115110553
:104E700039F0F80180819181C81BD90BC80ED91E69
:104E8000B12CA12C2097A9F08091E80085FD22C0CB
:104E90008091E8008E778093E80001151105A1F05C
:104EA000F80180819181A80EB91EB182A08285E0AF
:104EB000F82E8F2DDF91CF911F910F91FF90DF90F2
:104EC000CF90BF90AF9008950E94D3288823D1F24D
:104ED000F82EEFCFF60181916F018093F1002197B9
:104EE000FFEFAF1ABF0ACECFAF92BF92CF92DF9241
:104EF000FF920F931F93CF93DF936C01EB018A0115
:104F00000E94D328F82E811123C00115110539F014
:104F1000F80180819181C81BD90BC80ED91EB12C14
:104F2000A12C2097A9F08091E80085FD22C08091F6
:104F3000E8008B778093E80001151105A1F0F801D6
:104F400080819181A80EB91EB182A08285E0F82EE1
:104F50008F2DDF91CF911F910F91FF90DF90CF9018
:104F6000BF90AF9008950E94D3288823D1F2F82EE5
:104F7000EFCF8091F100F60181936F012197FFEF50
:104F8000AF1ABF0ACECFFC0180918D0390918E03A2
:104F900086179707A0F06115710529F49091E80034
:104FA0009E779093E80090E06115710551F491119E
:104FB00008C08091E80082FF34C080E00895BC0101
:104FC000F2CF809186038823C1F18530C1F18091B1
:104FD000E80083FD30C08091E80082FDEACF809137
:104FE000E80080FFE1CF8091F3002091F200382F9C
:104FF0006115710519F02830310558F091E028301D
:10500000310509F090E02091E8002E772093E80028
:10501000CBCF81918093F100615071092F5F3F4F99
:10502000E7CF80918603882341F0853041F080915D
:10503000E80083FFBECF81E0089582E0089583E019
:105040000895FC0180918D0390918E038617970738
:10505000A0F06115710529F48091E8008E778093A6
:10506000E80090E06115710551F4911108C080913C
:10507000E80082FF35C080E00895BC01F2CF809146
:1050800086038823C9F18530C9F18091E80083FD4A
:1050900031C08091E80082FDEACF8091E80080FF76
:1050A000E1CF8091F3002091F200382F6115710556
:1050B00019F02830310558F091E02830310509F019
:1050C00090E08091E8008E778093E800CBCF8491C8
:1050D0008093F1003196615071092F5F3F4FE6CF09
:1050E00080918603882341F0853041F08091E8006B
:1050F00083FFBDCF81E0089582E0089583E00895A5
:10510000982F973028F08F708093E90081E0089500
:105110009093E900242F762F50E0981731F070918A
:10512000EC002091ED005091F00021FD02C09F5F46
:10513000E8CF3091EB003E7F3093EB003091ED00F3
:105140003D7F3093ED003091EB0031603093EB0008
:105150007093EC002093ED005093F0002091EE004E
:1051600027FDE5CF80E008958091870387FF13C076
:105170008091E80082FF06C08091E8008B778093E1
:10518000E80004C0809186038111F2CF08958091D8
:1051900086038823D9F38091E80080FFF8CF8091BF
:1051A000E8008E77ECCF2091E4003091E50095E6A1
:1051B000A9012091EC00822F817020FF06C0809110
:1051C000E80080FF06C080E008952091E80022FDFD
:1051D0001AC080918603882389F0853089F08091F8
:1051E000EB0085FD0FC02091E4003091E5004217EF
:1051F0005307F9F29150E1F684E0089582E00895B2
:1052000083E0089581E008950E9473290E947B291C
:10521000E0EEF0E0808181608083E8EDF0E0808165
:105220008F77808319BCA7EDB0E08C918E7F8C9333
:1052300080818F7E80831092850308950F931F9342
:10524000CF93DF930E9473290E947B29C8EDD0E0A1
:1052500088818F77888388818068888388818F7D23
:10526000888319BC109286031092820310928403E3
:105270001092830300EE10E0F80180818B7F808321
:1052800088818160888342E060E080E00E9480281D
:10529000E1EEF0E080818E7F8083E2EEF0E08081BD
:1052A00081608083808188608083F80180818E7F27
:1052B0008083888180618883DF91CF911F910F91D6
:1052C0000895E8EDF0E080818F7E8083E7EDF0E0E7
:1052D00080818160808384E082BF81E08093850348
:1052E0000E941E290895E8EDF0E080818E7F808382
:1052F0001092E20008951092DA001092E1000895F1
:105300001F920F920FB60F9211242F933F934F933A
:105310005F936F937F938F939F93AF93BF93EF931D
:10532000FF938091E10082FF0BC08091E20082FF39
:1053300007C08091E1008B7F8093E1000E94B92437
:105340008091DA0080FF19C08091D80080FF15C0DD
:105350008091DA008E7F8093DA008091D90080FFFF
:1053600096C080E189BD82E189BD09B400FEFDCF10
:1053700081E0809386030E947D248091E10080FF7C
:1053800019C08091E20080FF15C08091E2008E7FFD
:105390008093E2008091E20080618093E20080913E
:1053A000D80080628093D80019BC85E08093860382
:1053B0000E949D248091E10084FF2BC08091E20037
:1053C00084FF27C080E189BD82E189BD89B5982F1E
:1053D000917080FFFBCF8091D8008F7D8093D800A3
:1053E0008091E1008F7E8093E1008091E2008F7ECA
:1053F0008093E2008091E20081608093E2008091DE
:105400008203882309F449C084E0809386030E94C4
:10541000AA248091E10083FF29C08091E20083FFEC
:1054200025C08091E100877F8093E10082E0809336
:105430008603109282038091E1008E7F8093E100C9
:105440008091E2008E7F8093E2008091E200806193
:105450008093E20042E060E080E00E94802880913A
:10546000F00088608093F0000E949624FF91EF91F5
:10547000BF91AF919F918F917F916F915F914F916C
:105480003F912F910F900FBE0F901F90189519BC50
:10549000109286030E948F2470CF8091E30087FDD5
:1054A00093E090938603B3CF1F920F920FB60F92A3
:1054B00011242F933F934F935F936F937F938F9319
:1054C0009F93AF93BF93CF93DF93EF93FF93D091CD
:1054D000E900DF708091EC00C82FC17080FDC0E84A
:1054E0001092E9008091F000877F8093F00078941B
:1054F0000E94982A1092E9008091F00088608093C1
:10550000F000CD2BCF70C093E900FF91EF91DF91B8
:10551000CF91BF91AF919F918F917F916F915F914B
:105520004F913F912F910F900FBE0F901F901895A4
:10553000AAE2B0E0EEE9FAE20C94362C87E893E0B8
:105540002091F100FC012193CF01F3E08F389F07F8
:10555000B9F70E941E258091E80083FF1EC180914B
:105560008703909188039A3008F017C1E92FF0E083
:10557000E551F34D0C941A2C803899F0823809F0DB
:105580000CC180918B038F70873008F006C1809327
:10559000E9008091EB0085FB882780F91092E900F3
:1055A00006C0809183039091840391118260909151
:1055B000E800977F9093E8008093F1001092F1004B
:1055C0008091E8008E77E5C0882309F4D3C082304B
:1055D00009F0E3C0809189038111D6C080918B03CB
:1055E0008F702FEF280F263008F0D7C08093E90086
:1055F0002091EB0020FFC8C0933031F48091EB0084
:1056000080628093EB00C0C09091EB00906190931A
:10561000EB0021E030E001C0220F8A95EAF72093E9
:10562000EA001092EA008091EB008860EACF8111D5
:10563000B4C0109189031F778091E3008078812B9B
:105640008093E3008091E800877F8093E8000E94C8
:10565000B4288091E80080FFFCCF8091E30080684F
:105660008093E30082E0111183E08093860395C06C
:105670008058823008F091C08091890390918A030C
:105680008C3D23E09207A1F583E08A838AE2898337
:105690004FB7F894DE01139620E03EE051E2E32F8D
:1056A000F0E050935700E49120FF03C0E295EF70C3
:1056B0003F5FEF708E2F90E0EA30C0F0C7968D9379
:1056C0009D932F5F243159F74FBF8091E800877F6A
:1056D0008093E8006AE270E0CE0101960E94C32741
:1056E0008091E8008B778093E80057C0C096E7CFA1
:1056F00060918B0370918C03AE014F5F5F4F0E94EE
:10570000B526BC01892B09F448C09091E800977F29
:105710009093E80089819A810E942128E1CF803806
:10572000E1F58091E800877F8093E8008091820313
:105730008093F10045CF811130C090918903923060
:1057400060F58091E800877F8093E8009093820362
:105750000E94B42880918203882311F084E005C060
:105760008091E30087FDFACF81E0809386030E9459
:10577000FA2413C080918903813079F481E0933059
:1057800009F080E0809384031092E9008091E800A2
:10579000877F8093E8000E94B4288091E80083FF0F
:1057A0000AC08091E800877F8093E8008091EB0039
:1057B00080628093EB00AA96E3E00C94522CCF9386
:1057C000809186038823A1F0C091E900CF70909169
:1057D000EC00892F817090FD80E8C82B1092E900C1
:1057E0008091E80083FD0E94982ACF70C093E90061
:1057F000CF910895991B79E004C0991F961708F07E
:10580000961B881F7A95C9F78095089597FB072EF8
:1058100016F4009407D077FD09D00E945E2C07FC97
:1058200005D03EF4909581959F4F089570956195B0
:105830007F4F0895EE0FFF1F0590F491E02D09941E
:1058400069279627692778278727782708952F9231
:105850003F924F925F926F927F928F929F92AF9200
:10586000BF92CF92DF92EF92FF920F931F93CF934D
:10587000DF93CDB7DEB7CA1BDB0B0FB6F894DEBFE4
:105880000FBECDBF09942A88398848885F846E840A
:105890007D848C849B84AA84B984C884DF80EE8054
:1058A000FD800C811B81AA81B981CE0FD11D0FB65D
:1058B000F894DEBF0FBECDBFED010895AA1BBB1B40
:1058C00051E107C0AA1FBB1FA617B70710F0A61B00
:1058D000B70B881F991F5A95A9F780959095BC0121
:1058E000CD010895FB01DC0104C08D910190801968
:1058F00021F441505040C8F7881B990B0895FB01D3
:10590000DC0102C001900D9241505040D8F708953B
:10591000F999FECF92BD81BDF89A992780B5089577
:10592000A8E1B0E042E050E00C94BC2C262FF9999D
:10593000FECF92BD81BDF89A019700B4021639F0EE
:105940001FBA20BD0FB6F894FA9AF99A0FBE0895BF
:105950000396272F0E94972C0E94962C252F0E9499
:10596000972C242F0C94972C0196272F0E94972C6C
:105970000C94962CDC01CB01FC01F999FECF06C0FA
:10598000F2BDE1BDF89A319600B40D9241505040FD
:10599000B8F70895F894FFCF10091009410941099B
:1059A000CE09EA0970097009F5095C0A6B0A6B0AED
:1059B0006F197B19A219AE19B919C419C719C719DA
:1059C000C719C719C719CA19CE19D619E319F01979
:1059D000F319F619031ABC2AE42ACD2BE42ACD2B9D
:0A59E000172B382BCD2B8F2B9B2BA0
:1059EA002303280850011E0A1401CD23F223D123D0
:1059FA004E244924D02301E200E900EA00B500B6AA
:105A0A0000B700CD008301CC008A019201940121E4
:105A1A0002230224022502260227022A02B300B424
:105A2A00006F007000818283E200E900EA00B5009D
:105A3A00B600B700CD008301CC008A01920194011F
:105A4A002102230224022502260227022A02B30087
:105A5A00B4006F007000818283F4F5F6F7313332B7
:105A6A00363534C6979190943F3F3F006D6B5F6423
:105A7A00656C6179006D6B5F696E74657276616CD5
:105A8A00006D6B5F6D61785F7370656564006D6B47
:105A9A005F74696D655F746F5F6D6178006D6B5FD0
:105AAA00776865656C5F6D61785F737065656400C2
:105ABA006D6B5F776865656C5F74696D655F746F40
:105ACA005F6D6178000A092D2056657273696F6EE1
